:100000000C94D3000C94FB000C94FB000C94EA219C
:100010000C94EA210C94EA210C94FB000C943621F8
:100020000C94FB000C94FB000C94FB000C94FB0064
:100030000C94FB000C94FB000C94FB000C94FB0054
:100040000C94F0200C94FB000C94B8210C94922199
:100050000C94FB000C94FB000C94FB000C94FB0034
:100060000C9469220C94FB00204D455247452043D7
:100070004F4D42494E45440020202020434F4D42E1
:10008000494E454400202020424F4F544C4F41449C
:10009000455200202020204649524D5741524500EC
:1000A000200020202020204C4754495350004C472A
:1000B000544953502026204C475444554445002071
:1000C000007C3C3E5E2B3D3F2F5B5D3B2C2A225C3F
:1000D000004156522049535000200050004D4552D7
:1000E0004745205355434345535346554C00202024
:1000F0004D45524745204641494C4544004D4552E7
:1001000047494E4720434F4D42494E4544004672B1
:1001100065652052414D2000200045002000500020
:1001200000000000240027002A002D000000000825
:10013000500201000003040700000000000000005E
:10014000000002000000002300260029002C00000F
:10015000000000250028002B002E000404040404E5
:100160000404040202020202020303030303030560
:10017000050505050505010204081020408001025F
:1001800004081020010204081020020801041020B5
:100190004055504C4F41444552455220504D4F44DC
:1001A00045007F23952F11241FBECFEFD8E0DEBF7F
:1001B000CDBF12E0A0E0B1E0E4E3FBE602C00590B1
:1001C0000D92A034B107D9F727E0A0E4B2E001C056
:1001D0001D92A338B207E1F710E0C2EDD0E004C0F1
:1001E0002197FE010E949F32C13DD107C9F70E94AD
:1001F000E1240C948D350C94000081508B3088F5EF
:10020000E82FF0E0EA5FFE4F0C949F321B011F01C4
:100210001101170131013101220128012C013201A4
:100220003601809180008F778093800008958091BF
:1002300080008F7DF9CF84B58F7784BD089584B514
:100240008F7DFBCF8091B0008F778093B0000895B1
:100250008091B0008F7DF9CF809190008F7780934F
:1002600090000895809190008F7DF9CF809190004B
:10027000877FF5CF1F93CF93DF93282F30E0F901CD
:10028000E45DFE4F8491F901EA58FE4FD491F901E3
:10029000E55AFE4FC491CC23A9F0162F81110E947C
:1002A000FD00EC2FF0E0EE0FFF1FE15BFE4FA5918C
:1002B000B4918FB7F894EC91111108C0D095DE235A
:1002C000DC938FBFDF91CF911F910895DE2BF8CF84
:1002D000CF93DF93282F30E0F901EA58FE4F449185
:1002E000255A3E4FF9012491843011F583E0809323
:1002F000A0002223D1F0822F90E0880F991FFC01EB
:10030000E05EFE4FA591B491FC01E15BFE4FC5910B
:10031000D491611122C09FB7F8948C9140958423A9
:100320008C938881482348839FBFDF91CF910895A4
:100330009AEE980F923020F48FEF84BF84BFD9CF0C
:100340008A31B9F68091F00082608EBB80E880939C
:10035000F0008EB38093F000CCCF623051F49FB7A1
:10036000F8942C91842F809582238C93E8814E2BD6
:10037000DACF8FB7F894EC914E2B4C938FBFD5CF3B
:100380003FB7F8948091590390915A03A0915B0371
:10039000B0915C0326B5A89B05C02F3F19F00196CC
:1003A000A11DB11D3FBFBA2FA92F982F8827BC01CF
:1003B000CD01620F711D811D911D660F771F881F72
:1003C000991F08958F929F92AF92BF92CF92DF9222
:1003D000EF92FF924B015C010E94C0016B017C0116
:1003E0000E94C0016C197D098E099F09683E734007
:1003F00081059105A8F321E0821A9108A108B108AE
:1004000088EEC80E83E0D81EE11CF11C8114910413
:10041000A104B10429F7FF90EF90DF90CF90BF9037
:10042000AF909F908F9008952FB7F89460915503E7
:100430007091560380915703909158032FBF0895F0
:100440009091130189130DC0E2E4F1E0E4919FEF74
:1004500090931301E13059F038F0E23071F0E3305D
:10046000E9F060E00C943A0110926E00FACF90919E
:100470006F009D7F90936F00F4CF909170009D7FEF
:100480009093700091E09093B0009091B100987FAC
:1004900094609093B1001092B300E3CF90917100FB
:1004A0009D7F90937100DDCF8F929F92AF92BF920C
:1004B000CF92DF92EF92FF920F931F93CF93DF9330
:1004C00020916907222309F42EC18C0188248A9483
:1004D000982C5401EFE7CE2EEEE3DE2EDFE7F2E4B8
:1004E000EF2EF1E0FF2E809169079091130189139F
:1004F00015C0F701C491C7FD02C161E00E94680107
:10050000CC2309F4ABC0C23009F0BCC08091B1006B
:10051000887F84608093B10089EF13C19F3F09F009
:10052000EEC080931301F701C491CF3F09F4E7C0F7
:10053000C13051F160F0C23009F448C0C33009F451
:100540006BC0C7FDDCC061E00E946801DCCF14BC59
:1005500015BC94B5926094BD95B5916095BD282F5A
:1005600030E0F901E55AFE4FE491F0E0EE0FFF1F95
:10057000E15BFE4F45915491F901EA58FE4FE49139
:10058000E0931606C0E0B9CF10928000109281006F
:10059000909181009860909381009091810091608A
:1005A00090938100282F30E0F901E55AFE4FE49145
:1005B000F0E0EE0FFF1FE15BFE4F45915491F90112
:1005C000EA58FE4FE491E093150697CF1092B000E1
:1005D0001092B1009091B00092609093B000909111
:1005E000B10091609093B100282F30E0F901E55AF5
:1005F000FE4FE491F0E0EE0FFF1FE15BFE4F4591EF
:1006000054915093140640931306F901EA58FE4F93
:10061000E491E093120671CF109290001092910035
:1006200090919100986090939100909191009160C9
:1006300090939100282F30E0F901E55AFE4FE491A4
:10064000F0E0EE0FFF1FE15BFE4F45915491F90181
:10065000EA58FE4FE491E09311064FCF85B5887FAD
:10066000836085BD89EF87BD809223069092240622
:10067000A0922506B092260680916E00826080933B
:100680006E003DC0C130C1F480918100887F8160DF
:1006900080938100D0928900C092880080921F06CA
:1006A00090922006A0922106B092220680916F00BF
:1006B000826080936F0023C0C330B1F480919100B9
:1006C000887F816080939100D09398008092170674
:1006D00090921806A0921906B0921A0680917100A5
:1006E0008260809371000BC0C130A1F224F4C1116B
:1006F00006C08FE7B8CFC23019F1C33029F364E6E2
:1007000070E080E090E00E94E201809169070E9421
:10071000200264E670E080E090E00E94E201015077
:10072000110909F0E0CEDF91CF911F910F91FF9059
:10073000EF90DF90CF90BF90AF909F908F900895F3
:100740008FE78093B30080921B0690921C06A092C4
:100750001D06B0921E06809170008260809370002A
:10076000CECFAF92BF92CF92DF92EF92FF920F93D4
:100770001F93CF93DF936C017B018B01040F151F37
:10078000EB015E01AE18BF08C017D10759F069919F
:10079000D601ED91FC910190F081E02DC601099503
:1007A000892B79F7C501DF91CF911F910F91FF90B0
:1007B000EF90DF90CF90BF90AF900895FC01538DE4
:1007C000448D252F30E0842F90E0821B930B54172B
:1007D00010F0CF96089501970895FC01918D828DB8
:1007E000981761F0A28DAE0FBF2FB11D5D968C9151
:1007F000928D9F5F9F73928F90E008958FEF9FEF90
:100800000895FC01918D828D981731F0828DE80F4B
:10081000F11D858D90E008958FEF9FEF0895FC0105
:10082000918D228D892F90E0805C9F4F821B9109D2
:100830008F739927089587E296E00E940F0421E0C4
:10084000892B09F420E0822F089580E090E0892B25
:1008500029F00E941B0481110C9400000895FC01F2
:10086000A48DA80FB92FB11DA35ABF4F2C91848D11
:1008700090E001968F739927848FA689B7892C936E
:10088000A089B1898C9180648C93938D848D981309
:1008900006C00288F389E02D80818F7D80830895D2
:1008A000EF92FF920F931F93CF93DF93EC0181E0C0
:1008B000888F9B8D8C8D981316C0E889F98980816B
:1008C00085FF11C0EE89FF896083E889F9898081FD
:1008D0008064808381E090E0DF91CF911F910F9140
:1008E000FF90EF900895F62E0B8D10E00F5F1F4FD5
:1008F0000F731127E02E8C8D8E110CC00FB607FCE4
:10090000FACFE889F989808185FFF5CFCE010E9471
:100910002F04F1CFEB8DEC0FFD2FF11DE35AFF4FAC
:10092000F0820B8FEA89FB8980818062D2CF682FA9
:1009300087E296E00C9450040F931F93CF93DF93BC
:100940008C01D0E0C0E0F801EC0FFD1F649166233C
:1009500041F087E296E00E945004892B11F0219625
:10096000F2CFCE01DF91CF911F910F910895CF93D8
:10097000DF93EC01888D8823B9F0AA89BB89E889C7
:10098000F9898C9185FD03C0808186FD0DC00FB66D
:1009900007FCF7CF8C9185FFF2CF808185FFEDCFEB
:1009A000CE010E942F04E9CFDF91CF9108952091CD
:1009B0004F03309150032817390771F490914D037C
:1009C00080914E03981741F0E0914D03F0E0E05123
:1009D000FD4F808190E008958FEF9FEF0895089577
:1009E00020914F03309150032817390771F48091FB
:1009F0004E0320914D0390E0805C9F4F821B910934
:100A000060E470E00E948B32089590E080E00895E9
:100A100020914F033091500328173907B9F4909172
:100A20004D0380914E03981789F0E0914D03F0E05B
:100A3000E051FD4F808120914D0330E02F5F3F4F0B
:100A40002F73332720934D0390E008958FEF9FEF8E
:100A50000895CF93DF93D0E0C0E080E297E00E945A
:100A6000F004892B61F4C83E83E0D80791F061E07F
:100A700070E080E090E00E94E2012196EECFC83E57
:100A8000D34039F080E297E00E940805DF91CF91D2
:100A9000089580E0FBCFCF930E942905C82F0E94C4
:100AA0002905C43111F4803119F083E080938F055A
:100AB000CF91089501970000E9F708956F927F9212
:100AC0008F929F92AF92BF92CF92DF92EF92FF925E
:100AD0000F931F93CF93DF938C01F62EFC01A48C10
:100AE000B58CA114B104A9F481E090E093838283D2
:100AF00090E080E0DF91CF911F910F91FF90EF90F8
:100B0000DF90CF90BF90AF909F908F907F906F902D
:100B10000895C189D289E0889E2C90947FB6868DF5
:100B2000F82FF2706F2E81FDF094F8948881662082
:100B300029F18E298883C5010E945A0598E0892EE3
:100B4000CF2CD12C8881F0FE1BC08E298883C50153
:100B50000E945A05D594C794FC2C8A948110F0CF3A
:100B60008881662079F0892188837FBEF801848D91
:100B7000958D0E945A0581E090E0BCCF8921DACFA3
:100B80008921E4CFE82AE882F0CF682F80E297E05D
:100B90000E945E0560E280E297E00C945E0585EDC0
:100BA0008093BC008091BC0084FDFCCF1092320386
:100BB0000895613298F420913203243089F46093CF
:100BC000A902282FA9E8B2E0FC018E2F821B86170C
:100BD00010F080E0089581918D93F7CF81E0089522
:100BE00082E00895E091360380913503E81730F4F0
:100BF000F0E0E759FD4F808190E008958FEF9FEF7F
:100C0000089590913603809135032FEF3FEF9817A9
:100C100048F4E92FF0E0E759FD4F208130E09F5F75
:100C200090933603C901089580913503909136035E
:100C3000891B990B0895CF92DF92EF92FF920F9349
:100C40001F93CF93DF937C01CB018A01209168022F
:100C5000222389F0EB016B01C40ED51ECC15DD05F6
:100C600069F06991D701ED91FC910190F081E02D3F
:100C7000C7010995F3CF642F0E94D905C801DF9100
:100C8000CF911F910F91FF90EF90DF90CF9008953B
:100C9000CF93DF931F92CDB7DEB7698320916802AF
:100CA0002223F9F020913303203258F021E030E084
:100CB000FC013383228390E080E00F90DF91CF919D
:100CC000089580913403E82FF0E0E85BFD4F9981AF
:100CD00090838F5F809334038093330381E090E0AF
:100CE000ECCF61E0CE0101960E94D905F7CF8FB716
:100CF000F894809142028FBF089561E0FC018481E5
:100D00000E943A018091410281111092410208959E
:100D10008EBD0000CE99FECF8EB594E499BB0895A8
:100D20008FEF0C9488060F931F93CF93DF93EC0102
:100D30000E9414028B010E9490068F3F69F00E946E
:100D40001402601B710B6C177D07A8F380E0DF9124
:100D5000CF911F910F91089581E0F9CF8CBD9DBD7A
:100D60000895CF93DF93EC0180914102811109C076
:100D700081E0809341028091D0069091D1060E943B
:100D8000AE0660E08C81DF91CF910C943A018F9296
:100D90009F92AF92BF92FF920F931F93CF93DF93D7
:100DA000EC01F62E49015A018E81882389F08F814A
:100DB00098859C012F5F3F4F38872F838230924068
:100DC00018F40E949006F3CFCE010E947D061E8289
:100DD000CE010E94B1068CE291E00E9493068F2D15
:100DE00080640E94880608E110E0D501C401002E4D
:100DF00004C0B695A795979587950A94D2F70E9457
:100E0000880608501109083F8FEF180771F785E928
:100E1000FF2021F028E087E8F2128FEF0E94880679
:100E200010E00E9490068A8787FF04C01F3F11F0E0
:100E30001F5FF7CFDF91CF911F910F91FF90BF9070
:100E4000AF909F908F900895AF92BF92CF92DF9214
:100E5000EF92FF920F931F93CF93DF93EC01690101
:100E6000C801820F931F8130924050F58E818823F4
:100E700079F088819981AA81BB8184179507A6079B
:100E8000B70731F48F819885C816D90608F042C09B
:100E9000488359836A837B838B85833039F089E06B
:100EA000440F551F661F771F8A95D1F79A01AB0132
:100EB00061E1CE010E94C706882389F083E08D831B
:100EC000CE010E947D0680E0DF91CF911F910F91AE
:100ED000FF90EF90DF90CF90BF90AF9008950E9469
:100EE00014025B010E9490068A878F3F69F40E947A
:100EF00014026A197B096D327140A0F38FE08D8373
:100F0000CE010E947D06DCCF8E3F89F418861F82B9
:100F100081E08E838F8198858C159D0550F40E9409
:100F200090068F819885019698878F83F3CF8DE007
:100F3000E6CF6701E00EF11E0E949006F601819354
:100F40006F01EE15FF05C1F78F819885080F191FF6
:100F500018870F838985882319F001151240A0F0A6
:100F60008E81882389F08F8198859C012F5F3F4F68
:100F700038872F838230924018F40E949006F3CF76
:100F8000CE010E947D061E8281E09ECFCF92DF922D
:100F9000EF92FF920F93CF93DF93EC01690182E10F
:100FA000411551056105710599F08B85833039F044
:100FB00089E0440F551F661F771F8A95D1F79A0164
:100FC000AB0168E1CE010E94C706882319F084E0D6
:100FD0008D832DC08EEF0E94880676018EEFD81A81
:100FE000F70181917F010E948806EC14FD04C1F78E
:100FF0008FEF0E9488068FEF0E9488060E9490065D
:101000008A878F71853071F4011116C0CE010E945C
:101010007D0681E0DF91CF910F91FF90EF90DF90FF
:10102000CF90089581E18D83CE010E947D06CE018F
:101030000E947D0680E0EECF88E592E00E94930654
:10104000811102C085E1C4CF20E030E0A9016DE04C
:10105000CE010E94C706882311F084E1B9CF0E9417
:1010600090068111FACFD2CF0F9340914402509154
:101070004502609146027091470241155105610594
:10108000710599F0082F2DE533E080915D05909171
:101090005E050E94C607882349F010924402109210
:1010A0004502109246021092470281E00F91089586
:1010B0000F93CF93C82F80914302811105C0C1E0E7
:1010C0008C2FCF910F910895409100015091010113
:1010D00060910201709103010C2F2DE533E08091A6
:1010E0005D0590915E050E94C607811102C0C0E0B7
:1010F000E7CFCC2321F381E00E9434088823B9F3A1
:1011000010924302DDCF8F929F92AF92BF92EF92E7
:10111000FF920F931F93CF934B015C01C42F8091DB
:10112000000190910101A0910201B0910301881585
:101130009905AA05BB0551F181E00E94580881116B
:101140000BC080E0CF911F910F91FF90EF90BF9067
:10115000AF909F908F9008958DE5E82E83E0F82E54
:1011600000E012E030E020E0B501A40180915D05CF
:1011700090915E050E942407882319F38092000154
:1011800090920101A0920201B092030140914302AA
:101190004C2B4093430281E0D5CF8F929F92AF9228
:1011A000BF92CF92DF92EF92FF92CF9322ED36E083
:1011B00030935E0520935D05882309F46DC040E0FF
:1011C00060E070E0CB010E94830881110BC080E0D9
:1011D000CF91FF90EF90DF90CF90BF90AF909F9016
:1011E0008F90089580911B058F7789F7809127054F
:1011F00090912805A0912905B0912A058436910582
:10120000A105B10520F3C0902305D0902405E090FE
:101210002505F0902605C114D104E104F104B9F2CA
:1012200040E0C701B6010E948308882381F28091C3
:101230006803909169038115924049F6A0916D036E
:10124000AA2329F260916B0370916C0361157105FB
:1012500009F4BDCF20916A03222309F4B8CFA093EB
:10126000F0062093E20690E080E030E0E1E0F0E07C
:10127000C82FAF01082E02C0440F551F0A94E2F791
:101280002417350769F041E0480F01968930910530
:1012900079F74093EB069BCFC12CD12C7601C0CFC0
:1012A0008093EB06209173033091740350E040E08B
:1012B0002115310541F42091810330918203409141
:1012C0008303509184032093E3063093E406409314
:1012D000E5065093E60646015701860E971EA11CAF
:1012E000B11C8092F1069092F206A092F306B092A1
:1012F000F406E0916E03F0916F03F093F706E0932C
:10130000F606B0E00E943A32DC01CB01880D991D4F
:10131000AA1DBB1D8093F8069093F906A093FA06C8
:10132000B093FB0625E0EE0FFF1F2A95E1F7E15091
:10133000FE4FEF2FFF27E6958E0F9F1FA11DB11DBA
:101340008093EC069093ED06A093EE06B093EF0623
:101350008090700390907103B12CA12C81149104A2
:1013600041F480907D0390907E03A0907F03B09025
:101370008003C81AD90AEA0AFB0AC80CD91CEA1C5D
:10138000FB1C04C0F694E794D794C794CA95D2F78F
:10139000C092E706D092E806E092E906F092EA06EB
:1013A00085EFC8168FE0D806E104F10428F48CE03C
:1013B0008093F50681E00CCF80E125EFC2162FEF78
:1013C000D206E104F104A0F38091890390918A038D
:1013D000A0918B03B0918C038093F8069093F9064B
:1013E000A093FA06B093FB0680E2E2CF4F925F92A1
:1013F0006F927F928F929F92AF92BF92CF92DF9225
:10140000EF92FF920F931F93CF93DF93EC01423043
:1014100051056105710590F480E0DF91CF911F9136
:101420000F91FF90EF90DF90CF90BF90AF909F9083
:101430008F907F906F905F904F90089589859A85E7
:10144000AB85BC850196A11DB11D84179507A60724
:10145000B70710F3CB88DC88ED88FE888F89803150
:1014600009F042C0BB27A72F962F852F48015901AD
:101470002A013B01C80ED91EEA1EFB1E8091000105
:1014800090910101A0910201B0910301C816D90603
:10149000EA06FB0699F58F898031C1F5B301A201F7
:1014A000552766277727440F551F435A5C4FFA018B
:1014B00091828082809143028160809343028A8975
:1014C000823080F08D819E81AF81B8858C0D9D1D0D
:1014D000AE1DBF1D8093440290934502A093460227
:1014E000B093470281E099CFDB01CA01E7E0B695EE
:1014F000A79597958795EA95D1F7B8CF40E0C701B2
:10150000B6010E9483088111C6CF86CFB301A20124
:101510004F77552766277727440F551F440F551FD0
:10152000435A5C4FFA0180829182A282B382C2CF79
:101530008F929F92AF92BF92CF92DF92EF92FF92E3
:101540000F931F93CF93DF93FC0181859285A38531
:10155000B4850196A11DB11D84179507A607B7078D
:1015600070F480E0DF91CF911F910F91FF90EF9089
:10157000DF90CF90BF90AF909F908F900895838819
:101580009488A588B6888789803189F5BB27A72FDD
:10159000962F852FE9016A017B018F01BC01CD01E6
:1015A000680D791D8A1D9B1D80900001909001019E
:1015B000A0900201B090030186169706A806B9060E
:1015C00001F5F8018789803111F5DD24EE24FF242F
:1015D000F601EE0FFF1FE35AFC4F80819181B0E0CE
:1015E000A0E088839983AA83BB8381E0BBCFDB0122
:1015F000CA01C7E0B695A79597958795CA95D1F783
:10160000C9CF40E00E9483088111DBCFAACFE894C4
:10161000C7F8DD24EE24FF24F601EE0FFF1FEE0FC6
:10162000FF1FE35AFC4F80819181A281B381BF707B
:10163000D8CF4F925F926F927F92AF92BF92CF922C
:10164000DF92EF92FF920F931F93CF93DF9300D01F
:1016500000D0CDB7DEB78C0149835A836B837C837E
:101660005901C12CD12C7601412C82E0582E612CDD
:10167000712C49815A816B817C819E012F5F3F4F84
:10168000C8010E94980A882339F1F8018585A301D1
:10169000920104C0220F331F441F551F8A95D2F7B1
:1016A000DA01C901C80ED91EEA1EFB1E49815A8102
:1016B0006B817C818789803111F188EF9FEFAFEFDB
:1016C000BFE0481759076A077B0798F2F501C08207
:1016D000D182E282F38281E00F900F900F900F9001
:1016E000DF91CF911F910F91FF90EF90DF90CF90FE
:1016F000BF90AF907F906F905F904F90089588EF6C
:101700009FEFA0E0B0E0DDCFCF93DF93FC01258118
:10171000222321F080E0DF91CF910895EC018091A8
:10172000F506803159F582E08583178A108E118E77
:10173000128E8091F6069091F706B0E0A0E025E0C9
:10174000880F991FAA1FBB1F2A95D1F7838B948BF3
:10175000A58BB68B8EED96E09C8F8B8F81E08C8372
:101760001E821F82188619861A861B861C861D8675
:101770001E861F86188A198A1A8ACDCF803251F6A2
:1017800083E085834091F8065091F9066091FA064E
:101790007091FB06478B508F618F728F9F012D5E7A
:1017A0003F4F8EED96E00E94190B8111D3CFB2CF3F
:1017B0008F929F92AF92BF92CF92DF92EF92FF9261
:1017C0000F931F93CF93DF93EC018D8181110EC096
:1017D00080E0DF91CF911F910F91FF90EF90DF900C
:1017E000CF90BF90AF909F908F9008950B891C89E8
:1017F0002D893E89041715072607370748F34A0144
:101800005B01823031F48A869B86AC86BD8681E09E
:10181000E0CF81149104A104B10449F41E821F8217
:10182000188619861A861B861C861D86F0CF0A85A7
:101830001B852C853D85EB8DFC8D858590E009967B
:10184000B901A8014150510961097109082E04C06C
:1018500076956795579547950A94D2F77501640177
:10186000E1E0CE1AD108E108F10804C0F694E7944B
:10187000D794C7948A95D2F7C416D506E606F7061C
:1018800020F0012B022B032B11F58F89988DA98D48
:10189000BA8D8E839F83A887B9878E010A5F1F4FF9
:1018A000C114D104E104F10409F4ADCF4E815F818C
:1018B0006885798598018B8D9C8D0E94980A91E0AE
:1018C000C91AD108E108F1088111EACF81CFC41A01
:1018D000D50AE60AF70AE1CF3F924F925F926F92E4
:1018E0007F928F929F92AF92BF92CF92DF92EF92B0
:1018F000FF920F931F93CF93DF93CDB7DEB72C9753
:101900000FB6F894DEBF0FBECDBF5C01DC015B9665
:101910008D909C905C9716964D905D906D907C900C
:101920001997411451046104710409F468C0BFEFB0
:101930004B1A5B0A6B0A7B0A312CF4018185928574
:10194000A385B4859C01AD012F5F3F4F4F4F5F4F83
:1019500029873A874B875C87730162011D821E824B
:101960001F821886F40181859285A385B4852D8117
:101970003E814F815885281739074A075B0708F0D1
:1019800056C089859A85AB85BC858C159D05AE05AD
:10199000BF0550F482E0C82ED12CE12CF12C92E04E
:1019A000492E512C612C712C9E012F5F3F4FB701A6
:1019B000A601C4010E94980A8823C9F189819A81ED
:1019C000AB81BC81892B8A2B8B2B09F12601370136
:1019D0009FEF491A590A690A790A2D813E814F8180
:1019E00058852F5F3F4F4F4F5F4F2D833E834F836F
:1019F00058873FEFC31AD30AE30AF30AB3CFF401BF
:101A000040805180628073803324339496CFC41415
:101A1000D504E604F70409F70FEF1FEF2FEF3FE0BF
:101A2000B701A601C4010E94F609811119C080E026
:101A30002C960FB6F894DEBF0FBECDBFDF91CF91CD
:101A40001F910F91FF90EF90DF90CF90BF90AF90DC
:101A50009F908F907F906F905F904F903F900895F0
:101A6000D50116964D915D916D917C911997411517
:101A700051056105710539F097018601C4010E9485
:101A8000F6098823A1F2D5011696CD92DD92ED924A
:101A9000FC921997332051F0D701C6010196A11D80
:101AA000B11DF40180839183A283B383F5018789FB
:101AB000908DA18DB28D892B8A2B8B2B39F484814B
:101AC000C78AD08EE18EF28E80688483F50184818E
:101AD0008062848381E0ACCF1F93CF93DF93FC01BE
:101AE00025812223D1F1162FEC01848187FF2AC0A2
:101AF000668577858089918941E00E9483088823E3
:101B000061F1EA8980E2E89FF0011124E35AFC4F79
:101B1000309719F18D81823040F48B899C89AD8991
:101B2000BE89848F958FA68FB78F8F89988D938F5D
:101B3000828F8F89988DA98DBA8DB58BA48B8C815E
:101B40008F778C83111103C08C818F7E8C83812FC2
:101B5000DF91CF911F910C94580880E0DF91CF91D5
:101B60001F910895FF920F931F93CF93DF93EC0182
:101B70008D81813041F090E080E0DF91CF911F9125
:101B80000F91FF9008958C8181FFF5CF82FD1BC0DE
:101B900000915D0510915E05C8010E94B1060E948A
:101BA0009006F82EC8010E947D068FEFF812E3CF51
:101BB0008C8185FF1BC060E0CE010E946C0D8C8182
:101BC0008F7D8C83D8CF4B895C896D897E898A858E
:101BD0009B85AC85BD8584179507A607B707C1F21D
:101BE000CE010E94D80B8111D3CFC5CF40914402C2
:101BF000509145026091460270914702452B462B59
:101C0000472B21F080E00E943408B5CF80618C839F
:101C10002A853B85317080E092E0821B930BADCF2B
:101C2000CF93DF93EC0161E00E946C0D882311F0EB
:101C30001D8281E0DF91CF9108952F923F924F92C4
:101C40005F926F927F928F929F92AF92BF92CF924C
:101C5000DF92EF92FF920F931F93CF93DF9300D009
:101C600000D01F92CDB7DEB77C015B01342E5D83BF
:101C7000DC0115968C911597813009F0CEC0149631
:101C80002C9021FECAC022FCB4C0C32CDD8022945B
:101C90007FE027222094B22DB1702B2ED7011A9607
:101CA0004D915D916D917C911D97C114D10409F402
:101CB00028C15B968D919C915C97FC0174807A940D
:101CC0008A019B0169E036952795179507956A95D6
:101CD000D1F770228A011170711020C00115110511
:101CE000E9F416964D915D916D917C91199741158E
:101CF00051056105710509F099C057968D919D9127
:101D00000D90BC91A02D0097A105B10509F0B0C0C0
:101D1000C7010E946C0C882309F47FC080E092E028
:101D2000801B910B46018C159D0508F44C01D701D1
:101D30005B964D915C915C9716968D919D910D905F
:101D4000BC91A02D0297A109B109FA01258504C013
:101D5000880F991FAA1FBB1F2A95D2F74685578562
:101D600060897189840F951FA61FB71F9C01AD0163
:101D7000270D311D411D511D29013A01811432E009
:101D8000930609F07BC08091000190910101A09120
:101D90000201B091030184159505A605B70559F414
:101DA0008FEF9FEFDC018093000190930101A093DE
:101DB0000201B0930301022D9501B301A2018091AC
:101DC0005D0590915E050E94C607882331F19EEF64
:101DD000B91AC818D908F70182859385A485B585F5
:101DE000880D991DA11DB11D82879387A487B58792
:101DF00055CFF70143895489658976898285938512
:101E0000A485B585481759076A077B0709F43DCFB4
:101E1000C7010E94D80B811138CF81E090E0D70133
:101E200013969C938E93129780E007C09E012F5FBC
:101E30003F4F0E94980A811102C090E079C08981C9
:101E40009A81AB81BC81F701238D348DF9012789FB
:101E500048EF5FEF60E070E0203121F048EF5FEF86
:101E60006FEF7FE084179507A607B70708F050CFFC
:101E7000F70186839783A087B18750CF011511059D
:101E800099F5D7011A964D915D916D917C911D97B1
:101E900053968D919D910D90BC91A02D4817590797
:101EA0006A077B0708F181E00E945808882309F43B
:101EB000B4CF4092000150920101609202017092F1
:101EC000030180914302816080934302C801835AD9
:101ED0009C4FD5019C01280D391DFC012E173F0791
:101EE00059F04D914193FACF41E0C301B2010E94F4
:101EF00083088111EBCF91CF281B390BA20EB31EA3
:101F000068CFF70183899489A589B68984179507D5
:101F1000A607B70738F48481438B548B658B768B87
:101F200080688483F701848183FD1AC0832D9D819D
:101F30000F900F900F900F900F90DF91CF911F9106
:101F40000F91FF90EF90DF90CF90BF90AF909F9058
:101F50008F907F906F905F904F903F902F9008955B
:101F600061E0C7010E946C0D882309F456CFDECFD3
:101F7000CF93DF931F92CDB7DEB7698341E050E086
:101F8000BE016F5F7F4F0E941D0E0F90DF91CF91BA
:101F90000895FC01DB0112968D919C911397938318
:101FA00082838DE891E09183808314968C911497BD
:101FB000848315968C911597858316964D915D9126
:101FC0006D917C91199746835783608771871A9624
:101FD0004D915D916D917C911D97428753876487E8
:101FE00075871E964D915D916D917C9151974687B5
:101FF0005787608B718B52968C915297828B539638
:102000004D915D916D917C915697438B548B658B6F
:10201000768B57964D915D916D917C915A97478B38
:10202000508F618F728F5B968D919C91948F838F6F
:102030000895DC015996ED91FC91309721F081E0F3
:102040009581911101C080E00895FC01818D928DF0
:10205000009719F061E00C946C0D0895DC0159961D
:10206000ED91FC913097B9F083899489A589B6895F
:102070004285538564857585841B950BA60BB70B2C
:10208000811520E89207A105B10538F08FEF9FE791
:10209000A0E0B0E0089590E080E00895DC0159965A
:1020A0008D919C91009739F0DC01ED91FC910480B9
:1020B000F581E02D099490E080E00895CF93DF93BF
:1020C000EC01E98DFA8D309749F481E090E09B8333
:1020D0008A8390E080E0DF91CF910895138212828D
:1020E000898D9A8D0E941D0EE98DFA8D2281338192
:1020F000232B59F7F0CFCF93DF931F92CDB7DEB7E5
:102100006983DC01ED91FC910280F381E02D41E0D7
:1021100050E0BE016F5F7F4F09950F90DF91CF9127
:1021200008952F923F924F925F926F927F928F927B
:102130009F92AF92BF92CF92DF92EF92FF920F9356
:102140001F93CF93DF9300D01F92CDB7DEB7FC0172
:102150008581811118C08FEF9FEF0F900F900F9026
:10216000DF91CF911F910F91FF90EF90DF90CF9073
:10217000BF90AF909F908F907F906F905F904F90A7
:102180003F902F900895848180FFE5CF4389548943
:102190006589768982859385A485B585312C212C26
:1021A000481759076A077B0719F022242394312C1A
:1021B0006F012101CE0101963C01DF011696BB8320
:1021C000AA834114510409F4C5C0F6014285538520
:1021D000648575854A01F1E09F22D6015B968D9159
:1021E0009C915C978A019B01E9E0369527951795AC
:1021F0000795EA95D1F71596EC91E230E9F5FC01E7
:10220000628D738D848D958D600F711F821F931F5A
:10221000A12C22E0B22EA818B9084A145B0408F4D5
:102220005201F601248126FD04C0A114F2E0BF068C
:1022300071F400910001109101012091020130918F
:102240000301061717072807390709F05EC040E0A9
:102250000E948308882309F47ECFC401835A9C4FCF
:10226000D3019C012A0D3B1DFC012E173F0709F4E9
:102270006CC041914D93F9CFDC011496BC90BA9497
:10228000B0228114910479F4B1100DC0452B462B76
:10229000472B69F5F6018789908DA18DB28D8683D4
:1022A0009783A087B187D6015B96ED91FC915C97EF
:1022B00016966D917D918D919C911997625071093F
:1022C00081099109258504C0660F771F881F991F12
:1022D0002A95D2F70685178520893189600F711FED
:1022E000821F931F6B0D711D811D911D91CFD60112
:1022F00016964D915D916D917C9119972A813B8144
:102300000E94980A8111CFCF26CF730185019401D5
:10231000AB01BC0180915D0590915E050E94240790
:10232000882309F418CF6A0C7B1CF60182859385FB
:10233000A485B5858A0D9B1DA11DB11D828793873C
:10234000A487B5874A185B083CCF281B390B620E5F
:10235000731EEBCF2A94232809F0FDCE898190E0EB
:10236000FCCEFC01818D928D009711F00C949110A0
:102370008FEF9FEF08950F931F93CF93DF93EC019F
:10238000898D9A8D10E000E0009799F00E949110DD
:102390008C010F3F100769F0898D9A8DFC014285F1
:1023A00053856485758541505109610971090E9401
:1023B000D80BC801DF91CF911F910F910895CF9352
:1023C000DF931F92CDB7DEB75F9A19829981981774
:1023D000F0F45C9800000000000000000000000025
:1023E0000000000000000000000000005C9A0000F7
:1023F00000000000000000000000000000000000DD
:1024000000000000000099819F5F9983DFCF0F904B
:10241000DF91CF910895CF93DF9300D0CDB7DEB792
:102420001A82882309F427C05C980000000000008D
:10243000000000000000000000000000000000009C
:1024400000005F9800000000000000000000000095
:102450000000000000000000000000005C9A000086
:10246000000000000000000000000000000000006C
:10247000000000000000579819828981883008F018
:1024800028C08A8190E0959587958A835C980000A2
:10249000000000000000000000000000000000003C
:1024A0000000000000004F9B03C08A8180688A837F
:1024B0005C9A000000000000000000000000000026
:1024C0000000000000000000000089818F5F898308
:1024D000D4CF579A5C98662301F15F9A0000000000
:1024E00000000000000000000000000000000000EC
:1024F000000000005C9A00000000000000000000E6
:1025000000000000000000000000000000008A81C0
:102510000F900F90DF91CF9108955F98DFCFCF9309
:10252000DF931F92CDB7DEB7882309F427C05C98EC
:10253000000000000000000000000000000000009B
:1025400000000000000000005F9800000000000094
:10255000000000000000000000000000000000007B
:1025600000005C9A00000000000000000000000075
:1025700000000000000000000000000019828981B6
:102580005C98883008F027C0862F90E060FF21C05B
:102590005F9A000000000000000000000000000042
:1025A00000000000000000000000BC017595679568
:1025B0005C9A000000000000000000000000000025
:1025C0000000000000000000000089818F5F898307
:1025D000D6CF5F98DECF4423F1F05F9A0000000071
:1025E00000000000000000000000000000000000EB
:1025F000000000005C9A00000000000000000000E5
:1026000000000000000000000000000000000F902B
:10261000DF91CF9108955F98E1CF1F93CF93DF9320
:10262000C82F162FD72F40E062EB81E00E948F1257
:1026300040E0612F80E00E948F12DF736C2F629563
:10264000660F660F607C6D2B40E080E00E948F1269
:102650006C2F66956695606C41E080E00E948F1259
:1026600084E0DF91CF911F910C94DF114F925F9224
:102670006F927F928F929F92AF92BF92CF92DF9292
:10268000EF92FF920F931F93CF93DF93CDB7DEB7F7
:1026900028970FB6F894DEBF0FBECDBF6A0159016F
:1026A0002B013C0182E076946794579447948A9575
:1026B000D1F761E070E080E00E940D13F12CE12C75
:1026C00094E0892E912CEA14FB040CF052C0C7014F
:1026D00083709927892B89F5B20180EC0E940D1334
:1026E000B20180EE0E940D1341E06AEA81E00E948F
:1026F0008F1260E081E00E940B12898360E080E02D
:102700000E940B128A8360E080E00E940B128B8390
:1027100061E080E00E940B128C8384E00E94DF1154
:1027200089819A81AB81BC818D839E83AF83B88779
:102730008FEF481A580A680A780AC701B4010E9444
:102740008B32E5E0F0E0EC0FFD1FE80FF91F808110
:10275000F601EE0DFF1D0115110531F0908198175E
:1027600021F0F80180818F5F8083FFEFEF1AFF0A6D
:10277000AACF61E070E080E028960FB6F894DEBF43
:102780000FBECDBFDF91CF911F910F91FF90EF90C2
:10279000DF90CF90BF90AF909F908F907F906F9081
:1027A0005F904F900C940D1340E060ED81E00E942B
:1027B0008F1240E06AEA80E00E948F1240E065E5F7
:1027C00080E00E948F1240E06AEA80E00E948F124F
:1027D00041E065E580E00E948F1284E00C94DF11F7
:1027E0000E94D4138AB18F768AB9109290055D9AAF
:1027F00055980895CF93C82F41E06EEA81E00E947A
:102800008F1284E00E94DF1160E081E00E940B12D1
:1028100080931B0760E080E00E940B1280931C07EE
:1028200060E080E00E940B1280931D0761E080E071
:102830000E940B1280931E0784E00E94DF110E9409
:10284000D41380911B0792EC980F923018F080E01F
:10285000CF9108958F3309F0ECC0CC2309F4E7C081
:1028600061E070E080E00E940D1361E070E088E9B3
:102870000E940D1361E070E08AE90E940D1368EC7C
:1028800070E080E090E00E94E20161E070E08AE8A0
:102890000E940D1364E170E080E090E00E94E2018C
:1028A00061E070E088E80E940D1361E070E080E074
:1028B0000E940D1380911B078E3309F059C040E030
:1028C00060EF81E00E948F1240E060E080E00E94B3
:1028D0008F1240E060E080E00E948F1240E060E0F4
:1028E00080E00E948F1241E060E080E00E948F1241
:1028F00084E00E94DF1140E061EB81E00E948F12D2
:1029000040E06DE380E00E948F1240E060E680E0EE
:102910000E948F1240E06CE080E00E948F1240E045
:1029200060E080E00E948F1241E06FE080E00E9452
:102930008F1288E20E94DF1140E060EF81E00E9488
:102940008F1240E063E480E00E948F1240E060E478
:1029500080E00E948F1240E069E580E00E948F12C3
:1029600041E06DE580E00E948F1284E00E94DF115B
:1029700088E20E94DF1140E061EB81E00E948F124B
:1029800040E06CE080E00E948F1240E060E080E078
:102990000E948F1241E067E180E00E948F1288E27E
:1029A0000E94DF1141E069EA81E00E948F1284E019
:1029B0000E94DF1160E081E00E940B1261E080E084
:1029C0000E940B12C82F84E00E94DF11C03209F070
:1029D00067C040E061EB81E00E948F1240E06DE350
:1029E00080E00E948F1240E060E280E00E948F123F
:1029F00040E06CE080E00E948F1240E060E080E008
:102A00000E948F1241E06FE080E00E948F1288E206
:102A10000E94DF1140E061EB81E00E948F1241E0F3
:102A20006DE080E00E948F1282E00E94DF1181E061
:102A30000FCF40E060EF81E00E948F1240E064E53C
:102A400080E00E948F1240E061E580E00E948F12DA
:102A500040E06AE480E00E948F1241E06CE480E094
:102A60000E948F1284E00E94DF11C111F9CE61E053
:102A700070E080E00E940D1361E070E088E90E9440
:102A80000D1361E070E082E90E940D1368EC70E0C4
:102A900080E090E00E94E20161E070E08EE9EDCE1E
:102AA000C03609F0D4CEB6CFCF93DF93EC018AE0E5
:102AB0000E94DF1141E068EA81E00E948F1284E009
:102AC0000E94DF1160E081E00E940B12888360E0C9
:102AD00080E00E940B12898360E080E00E940B126C
:102AE0008A8361E080E00E940B128B8384E0DF9197
:102AF000CF910C94DF118AB180698AB95F9A5C9A90
:102B00000895CF93C82F5D9A559A64E170E080E0F4
:102B100090E00E94E2015D980E947B1580E50E9492
:102B2000DF118C2F0E94FA138093900580919005FD
:102B3000811105C08C2F0E94FA1380939005CF91CC
:102B400008956F927F928F929F92AF92BF92CF9291
:102B5000DF92EF92FF920F931F93CF93DF934B017E
:102B60005C017A01690180911F07811108C00E94F0
:102B7000F01381E00E94811581E080931F0780910E
:102B80009005882309F45DC082E0B694A7949794D9
:102B900087948A95D1F7E401B40180E00E940D1377
:102BA000B40184E80E940D13B40186E80E940D135D
:102BB00087015E018FEFA81AB80AC8018E199F0914
:102BC0008C159D058CF5F801608071808280938062
:102BD0000C5F1F4F40E062EB81E00E948F1240E0EB
:102BE000662D80E00E948F1240E0672D80E00E94F9
:102BF0008F1240E0682D80E00E948F1241E0692D25
:102C000080E00E948F1284E00E94DF11BE0186E8FE
:102C10000E940D13BE0186EC0E940D13BE0186E8D2
:102C20000E940D13E501C5CF2197BE0182E80E94E5
:102C30000D13BE0180E80E940D13BE0180E00E94CA
:102C40000D139091900581E0911101C080E0DF911A
:102C5000CF911F910F91FF90EF90DF90CF90BF9099
:102C6000AF909F908F907F906F9008958091900586
:102C7000811104C00E94811510921F078BE197E01B
:102C80000E9454159091900581E0911101C080E05F
:102C90000895CF93DF93FB0122813381DC011396EA
:102CA0003C932E93129744815581668177811496C7
:102CB0004D935D936D937C93179740855185628505
:102CC000738518964D935D936D937C931B971C961B
:102CD000EF012C969C01275E3F4F49914D93A2171F
:102CE000B307D9F7218D328DFC01328F218FDF910F
:102CF000CF91089521E001C0220F6A95EAF7DC0127
:102D00001C962C931C971A965C934E931997ED91F1
:102D1000FC910484F585E02D60E00994682F82E041
:102D20000C943A0187E296E00E940F04892BD1F3BC
:102D300087E296E00E94ED030895CF93C82F0E948A
:102D40009216803251F484E10E9497048C2F0E94E5
:102D5000970480E1CF910C94970480918F058F5F49
:102D600080938F0585E1F6CF0E949216803231F470
:102D700084E10E94970480E10C94970480918F0570
:102D80008F5F80938F0585E1F7CFEF92FF920F93CE
:102D90001F93CF93DF937C01D0E0C0E0CE15DF0519
:102DA00074F48E01C038D10514F010E000E00E94E8
:102DB0009216F801EF56FA4F80832196EFCFDF91FC
:102DC000CF911F910F91FF90EF9008950F931F9354
:102DD000CF93DF938C010E94C51690E080E00E94A3
:102DE0008E16D0E0C0E0C017D10744F46DE270E069
:102DF00080E090E00E94E2012196F5CF81E090E032
:102E00000E948E1680E1DF91CF911F910F9108955E
:102E1000DC01ED91FC910684F785E02D41E00995F8
:102E200081E090E00895DC01ED91FC910684F78546
:102E3000E02D40E009940F931F93CF93DF93CDB71C
:102E4000DEB728970FB6F894DEBF0FBECDBF009156
:102E50001A0110911B0120911C0130911D01098361
:102E60001A832B833C8300911E0110911F01209136
:102E70002001309121010D831E832F833887FC01AF
:102E80002781421710F04FEF420F50E0FC013085D0
:102E90004C0F5D1FFA01303189F4243079F425811B
:102EA000620F606828960FB6F894DEBF0FBECDBFE4
:102EB000DF91CF911F910F910C9413172181F0CFC7
:102EC0000F931F93CF93DF93EC01423018F08C8166
:102ED00088608C834F836887222329F0413019F45E
:102EE0008C8184608C8364E670E080E090E00E94D6
:102EF000E2016C8164FD55C0E881F9810684F785A3
:102F0000E02D42E063E0CE01099503E719E6C80130
:102F10000197F1F7E881F9810684F785E02D42E019
:102F200063E0CE010995C8010197F1F7E881F981C5
:102F30000684F785E02D42E063E0CE0109958FE736
:102F400093E00197F1F7E881F9810684F785E02D98
:102F500042E062E0CE0109956C816062CE010E9480
:102F6000131784E08D836CE0CE010E94131761E09B
:102F7000CE010E9413178BED9EE20197F1F782E0DC
:102F80008E8366E0CE010E941317E881F9810484E4
:102F9000F585E02D6FEFCE01DF91CF911F910F915D
:102FA00009946062CE010E94131783E799E60197A6
:102FB000F1F76C816062CE010E9413178FE793E0F6
:102FC0000197F1F76C816062CE010E941317C4CFA4
:102FD00008950895089590E080E00895CF93FC014E
:102FE0002381222309F46DC0262F6181609562231D
:102FF0006083C28181E080936802C0934002109296
:1030000034031092330384EC96E00E9448069091BA
:10301000330321E0913208F041C0809132038111E5
:10302000FCCF82E08093320381E0809331038FEF05
:103030008093CC021092EE029093ED02A8E4B2E0ED
:10304000EDECF2E080E0981338C01092EF0280912E
:10305000EF02CC0FC82BC093EF0280913003813078
:1030600031F4109230038091EF028093BB0085EE23
:103070008093BC00809132038230E1F38091CC02D6
:1030800020E08F3F59F08091CC0222E0803231F075
:103090008091CC0224E0803309F423E010923403C1
:1030A000109233031092680230E081E090E0232B0D
:1030B00011F090E080E0CF9108952D9121938F5FE2
:1030C000C2CF30E020E0F1CFEF92FF920F931F9339
:1030D000CF938C01FC0184E0C0E0262F30E060FF3C
:1030E00002C09589C92BB9017595679581503196B4
:1030F0008111F3CF413011F4F8014489F80165855D
:10310000C62BC42B7801FEE0EF0EF11CF80162899A
:103110006C2BC7010E94EE17F801628960956C2341
:10312000C701CF911F910F91FF90EF900C94EE1774
:103130000F931F93CF93DF93062F0F70423041F40C
:1031400040E0602FDF91CF911F910F910C94641894
:10315000142FEC0170E084E0759567958A95E1F78E
:10316000CE010E946418412F602FCE01EBCFFC01ED
:1031700084858823A1F0218532852115310521F42C
:10318000611107C0158606C021303105D9F76111DC
:10319000F9CF85876585CF010E960C94EE170895BB
:1031A000FF920F931F93CF93DF93EC01162F042F01
:1031B000F22E8B85888B909132039111FCCF91E098
:1031C00090933203909331032FEF2093CC0210920F
:1031D000EE021092ED029093EF029091EF02880FB1
:1031E000892B8093EF0280913003813031F410926B
:1031F00030038091EF028093BB0085EE8093BC008A
:10320000809132038130E1F38091EE0291E08111EF
:1032100002C09091EE02EDECF2E0A9E6B2E080E0AF
:10322000891323C0109236038093350391E08111F6
:1032300001C090E0998B84EC96E00E9401068E8795
:103240008989882339F01F861C8260E0CE010E96A2
:103250000E94EE172F2D402F612FCE01DF91CF91CD
:103260001F910F91FF900C94601721912D938F5F08
:10327000D7CF8F929F92AF92BF92CF92DF92EF9271
:10328000FF920F931F93CF93DF9300D000D0CDB761
:10329000DEB77C0180E2689FF0011124E35AFC4F05
:1032A00093859171A9F0842F827491F080E00F9042
:1032B0000F900F900F90DF91CF911F910F91FF9082
:1032C000EF90DF90CF90BF90AF909F908F90089538
:1032D000142FD70152966C93529740910001509150
:1032E000010160910201709103011E964D935D935F
:1032F0006D937C93519784889588B12CA12C5401AF
:103300009924882457968D929D92AD92BC925A979B
:10331000828D938DB0E0A0E0AC01BD014829592910
:103320006A297B29D70157964D935D936D937C93C2
:103330005A978385887109F08CC0848D958DA68DF0
:10334000B78DF701838B948BA58BB68B81E085833A
:10335000812F8F70D70114968C931497F7011682E2
:103360001782108611861A961D921D921D921C922C
:103370001D9716FF84C015968C911597813009F022
:1033800095CF11FF93CF53968D919D910D90BC9148
:10339000A02D892B8A2B8B2B09F471C040E050E0C3
:1033A000BA01C7010E94D80B882309F47FCFF70127
:1033B000C38CD48C8788908CA18CB28C82E090E0F6
:1033C000A0E0B0E0F60180839183A283B3839E01E5
:1033D0002F5F3F4FB501A401C6010E94980A8823C0
:1033E00009F464CF00E010E09801B501A401C60122
:1033F0000E94F609882309F459CF89809A80AB800E
:10340000BC80D60157968C918031A1F188EF9FEF57
:10341000AFEFBFE088169906AA06BB06C0F2F70117
:10342000178A108E118E128E138A148A158A168AA4
:1034300084818068848361E0C7010E946C0D8823C9
:1034400009F434CF40E050E0BA01C7010E94D80B24
:103450002ECF803109F02ACF97012D5E3F4F5B962A
:103460008D919C910E94190B882309F41FCF84E051
:10347000F7016DCF88EF9FEFA0E0B0E0CBCF81E008
:1034800016CFAF92BF92CF92DF92EF92FF920F933F
:103490001F93CF93DF9390E080E00E948E16C09040
:1034A0000601D0900701C0910401D09105018091DF
:1034B0007B0790917C07019709F0C6C0860116959D
:1034C0000795809190058823F1F065E580E297E00B
:1034D0000E945E05602F80E297E00E945E056D2DE0
:1034E000669580E297E00E945E0560E280E297E0E8
:1034F0000E945E050E944B0580918F05882371F123
:1035000086E080938F05809190058823F1F065E532
:1035100080E297E00E945E05602F80E297E00E94C3
:103520005E056D2D669580E297E00E945E0560E283
:1035300080E297E00E945E050E944B0580918F0516
:103540008823D9F187E080938F0580918F058823A8
:1035500009F46CC086E080938F0568C064E680E261
:1035600097E00E945E0560E080E297E00E945E05C1
:1035700060E880E297E00E945E0566E480E297E002
:103580000E945E057E015E0180E8A80EB11CF70175
:1035900061917F0180E297E00E945E05EA14FB04DE
:1035A000B1F760E280E297E00E945E050E944B0561
:1035B00080918F058111A4CFA6CF64E780E297E0C8
:1035C0000E945E0560E080E297E00E945E0560E890
:1035D00080E297E00E945E0566E480E297E00E9448
:1035E0005E0560E280E297E00E945E050E94290588
:1035F000182F7E01F0E8EF0EF11C09910E942905B9
:10360000081729F080918F058F5F80938F05EC1646
:10361000FD0699F70E942905143109F093CF909186
:103620008F0591118FCF803109F08CCF81E090E030
:10363000DF91CF911F910F91FF90EF90DF90CF908E
:10364000BF90AF900C948E16F12CE12C20E830E066
:10365000AE01C701B6010E94A11580919005882393
:1036600049F00FE815E020E830E0AE01C701B601EF
:103670000E9436138091900568CFEF92FF920F93CE
:103680001F93CF93DF937B01482F60E08FE397E098
:103690000E941B17E70109900020E9F72197CE1936
:1036A000C13108F0C0E1DE2D8701802F8D1B8C1702
:1036B00040F4F80161918F018FE397E00E940817B1
:1036C000F4CFC03139F060E28FE397E00E94081731
:1036D000CF5FF7CFDF91CF911F910F91FF90EF90C8
:1036E0000895FB0101900020E9F73197AF01461BD7
:1036F000570BDC01ED91FC910280F381E02D0994E0
:103700006115710511F00C94711B90E080E0089533
:10371000CF93DF93EC0141E060E08FE397E00E94FC
:103720001B1765EC71E08FE397E00E94801BEC8132
:10373000F0E0EE0FFF1FEE5DFE4F608171818FE3C1
:1037400097E00E94801B8C8190E09E838D8390E0A7
:1037500080E0DF91CF9108951F93CF93DF93EC0129
:103760008C818F5F853080F58C8341E060E08FE352
:1037700097E00E941B1710E160E28FE397E00E9440
:1037800008171150C9F741E060E08FE397E00E940D
:103790001B1741E060E08FE397E00E941B1765EC88
:1037A00071E08FE397E00E94801BEC81F0E0EE0F68
:1037B000FF1FEE5DFE4F608171818FE397E0DF9127
:1037C000CF911F910C94801B1C82CFCFCF93DF939E
:1037D000EC0140E150E088E597E00E94F63110925C
:1037E000680768E577E0CE01DF91CF910C943D1B2F
:1037F00061E08FE397E00E9413178BED9EE2019743
:10380000F1F76EEA70E090E080E00E94E61B8091A4
:103810007B0790917C0762EA70E00097A9F063E96A
:1038200070E08130910581F065E870E082309105AB
:1038300059F068E770E08330910531F060EA70E09C
:10384000049711F468E670E081E090E00C94E61BC8
:103850000C94F81BCF93C82F40E150E088E597E027
:103860000E94F6311092680741E06C2F8FE397E0D9
:103870000E941B1768E577E08FE397E0CF910C94E7
:10388000801B80917B0790917C07892BE9F08091C8
:103890009005811119C080915103811115C080914B
:1038A0008F05882351F010928F05109252036FEB11
:1038B00070E08FE090E00E942A1C61E082E00E94AC
:1038C000680181E0809351030895E4E0F1E081E92B
:1038D00095E09183808313821282148281E0858334
:1038E000168210861782118640E850E06FEF70E074
:1038F00081E995E00C94CB320F931F93CF93DF9324
:103900008C01EFE5F5E080E3DF011D928A95E9F790
:10391000C8010E94B111D0E0C0E097FD11C08A300B
:10392000910571F08D30910529F0FE01E15AFA4FB1
:1039300080832196C8010E94B111C033D10569F777
:10394000CE01DF91CF911F910F9108950F931F9397
:10395000CF93DF938091660580930E018091670578
:1039600080930F011092100140E150E070E060E0A0
:103970008EE091E00E94D63060930A016111ACC0E4
:103980008091620580930E018091630580930F0101
:1039900080916405809310018091650580931101E9
:1039A0001092120140E150E070E060E08EE091E0A2
:1039B0000E94D63070930C0160930B0180916005DA
:1039C00080930E018091610580930F011092100188
:1039D00040E150E070E060E08EE091E00E94D6307F
:1039E00060930D018091080120910B0130910C0131
:1039F00081110AC080910901882331F030930701B9
:103A0000209306011092090180910601909107010F
:103A100080589F4F82179307F8F49FEFE0910801B9
:103A20001E1674F42091040130910501E20FF32F6A
:103A3000F11D9083809108018F5F80930801EECF84
:103A40000E94411A1092080180910B0190910C0183
:103A50009093070180930601C0910D01CC0FC75FC1
:103A60000FE515E0D9E0DC1708F059C08091080196
:103A7000803871F40E94411A109208018091060169
:103A80009091070180589F4F909307018093060102
:103A9000F801818580930E01828580930F01109239
:103AA000100140E150E070E060E08EE091E00E94A3
:103AB000D630E09108018091040190910501E80F52
:103AC000F92FF11D6083809108018F5F80930801B9
:103AD000DE5F0E5F1F4FC7CF613009F59FEFE091AA
:103AE00008011E1674F42091040130910501E20FC3
:103AF000F32FF11D9083809108018F5F809308015F
:103B0000EECF0E94411A1092080180910601909117
:103B1000070180589F4F9093070180930601DF9122
:103B2000CF911F910F910895CF93DF9300D01F92F3
:103B3000CDB7DEB71B8289836A8340E150E070E035
:103B400060E0CE0101960E94D630862F0F900F9034
:103B50000F90DF91CF9108950F931F93CF93DF9331
:103B6000CDB7DEB761970FB6F894DEBF0FBECDBFFD
:103B70008C01DC0115968C91159714968C931497F3
:103B800012966D917C9190E080E00E94E61BD80136
:103B90001496EC91F0E0EE0FFF1FEE5DFE4F818179
:103BA0008F9380818F9387EC91E09F938F938E0109
:103BB0000F5F1F4F1F930F930E94EC32B80181E0FB
:103BC00090E00E943D1B0F900F900F900F900F9070
:103BD0000F9061960FB6F894DEBF0FBECDBFDF9198
:103BE000CF911F910F9108950E94B9323F924F9249
:103BF0005F926F927F928F929F92AF92BF92CF927D
:103C0000DF92EF92FF920F931F93CF93DF93CDB785
:103C1000DEB72B970FB6F894DEBF0FBECDBF7C0189
:103C2000FE013196CE010C966F0130E23193E81718
:103C3000F907E1F7DA0130E087E09D91B92E992389
:103C400009F43CC09E32F1F48A30C9F480E02B962E
:103C50000FB6F894DEBF0FBECDBFDF91CF911F919D
:103C60000F91FF90EF90DF90CF90BF90AF909F901B
:103C70008F907F906F905F904F903F90089538E0C5
:103C80008AE0DBCFE1ECF0E04491442321F031966F
:103C90009413FACFDBCF8317C8F24FED490F4E359F
:103CA000A8F64FE9490F4A3118F440EEB42EB90E88
:103CB000F601E30FF11DB0823F5FBFCF89818032F3
:103CC00029F2322E8B01DB015B968D919C915C97E2
:103CD000F701948F838F16961D921D921D921C9250
:103CE0001997FB011286138614861586F8018285C2
:103CF0009385A485B5854389548965897689841718
:103D00009507A607B70708F04DC025E0B695A7951B
:103D1000979587952A95D1F7F82FFF70AF2ED80188
:103D200015968C91823008F491CFC8010E949110B1
:103D300097FD8CCFF80182859385A485B5854F9634
:103D4000A11DB11D82879387A487B587F0E2AF9E3E
:103D5000B0011124635A7C4F6115710509F476CFC7
:103D6000DB018C91882341F0853E09F062C0BB20C5
:103D700029F0BB24B394BACFB1100EC0F701A28AC8
:103D80008091000190910101A0910201B091030185
:103D900086879787A08BB18BDB018C918111E9CF4E
:103DA000BB24B394832D8271823109F04FCFBB20A5
:103DB00009F44DC0F701668577858089918941E0D6
:103DC0000E948308882309F441CFD70152968C9131
:103DD000B0E28B9FC0011124835A9C4F009709F4D5
:103DE00035CFFC013A9626E1DF011D922A95E9F7CD
:103DF0002BE0F601DC0101900D922A95E1F721E21A
:103E000038E2FC01318B208B40E058E05787468731
:103E1000338B228B318F208F578B468B81E00E9412
:103E20005808882309F412CF432DD70152966C917C
:103E30000AC04BE050E0C6010E94BE32892B09F057
:103E400055CF432D6A2DC7010E94391900CFF801C3
:103E50008581823009F4FACEC8010E946C0C882357
:103E600009F4F4CED8015B96ED91FC915C9716961F
:103E70008D909D90AD90BC901997B2E08B1A9108EF
:103E8000A108B108858504C0880C991CAA1CBB1C1C
:103E90008A95D2F786859785A089B189880E991E63
:103EA000AA1EBB1E848124013501480E511C611CD1
:103EB000711C84149504A604B70409F1E1E04E1ABC
:103EC00051086108710881E00E945808882309F4AC
:103ED000BDCEEDE5F3E011928DE595E08E179F07DD
:103EE000D1F740920001509201016092020170925C
:103EF000030180914302816080934302DACFD801AD
:103F00005B96ED91FC91258580E092E0A0E0B0E029
:103F100004C0880F991FAA1FBB1F2A95D2F7F8016A
:103F20004389548965897689840F951FA61FB71F19
:103F3000838B948BA58BB68BD70152961C928DE503
:103F400093E04FCFCF93DF93EC01898D9A8D00974B
:103F500041F00E94100E898D9A8D0E944D301A8E6C
:103F6000198EDF91CF910895EF92FF920F931F93D7
:103F7000CF93DF93EC017B018A011B821A8288EECA
:103F800093E0A0E0B0E08C839D83AE83BF8387E5A0
:103F900091E0998388838DE190E00E94B12F9A8F00
:103FA000898F009779F02DE1F701DC0101900D92E6
:103FB0002A95E1F74CE050E0B801CE010C960E9442
:103FC000DD32188EDF91CF911F910F91FF90EF900E
:103FD00008952F923F924F925F926F927F928F92AD
:103FE0009F92AF92BF92CF92DF92EF92FF920F9388
:103FF0001F93CF93DF93CDB7DEB7C756D1090FB666
:10400000F894DEBF0FBECDBF6C015B01A6964FAF2B
:10401000A69719A218A28DE891E09F8F8E8F1BA200
:104020001C821B829A8389831E824E018EE1880E38
:10403000911CC4010E94840B75018E010F5F1F4FFC
:10404000240118016FE270E0C7010E94D23200978C
:1040500009F45DC0F70120812F3271F4FFEFEF1AF0
:10406000FF0A902F812F8201492E582E942D852DE5
:104070002801092F182FE6CF8E198D3008F08CE01B
:10408000682E712CA301B701CE01885A9F4F0E9460
:10409000DD32E8E5F0E0EC0FFD1FE60DF71D1082C4
:1040A000C8010E94100EF8018581882301F11EAE1F
:1040B0001DAE8DE891E09CAF8BAF21961FAE21978E
:1040C000A896EEADFFADA897AE0EBF1EF50180819C
:1040D00081112AC0BE01655C7F4FC1010E94C90FDA
:1040E0004BEC51E0B101C6010E94B41F3BC021E07E
:1040F000AE01485A5F4FB201C8010E94F61D8823E5
:10410000B1F2E60CF71CC2010E94100EAFCFC7013E
:104110008A199B09A8969FAF8EAFA897B201CE01CE
:10412000CB960E94C90FCCCF19A218A28DE891E0BE
:104130009F8F8E8F1BA221968FAD219781112DC04D
:10414000F6011382128288EE93E0A0E0B0E084834F
:104150009583A683B78387E591E091838083128E50
:10416000118E1486C601C959DF4F0FB6F894DEBF11
:104170000FBECDBFDF91CF911F910F91FF90EF90B8
:10418000DF90CF90BF90AF909F908F907F906F9077
:104190005F904F903F902F900895A6962FADA697D1
:1041A000A501BE01655C7F4FC4010E94F61D8823F6
:1041B00039F2CE01CB960E94100EA6968FADA6972F
:1041C0008670863039F449A95AA96BA97CA9C40123
:1041D0000E94D80BB401C1010E94C90FA50182CF72
:1041E0001F920F920FB60F9211242F933F938F932C
:1041F0009F93AF93BF938091550390915603A091E5
:104200005703B09158033091540320E4230F2D3706
:1042100028F023EC230F0196A11DB11D2093540318
:104220008093550390935603A0935703B09358037C
:104230008091590390915A03A0915B03B0915C0364
:104240000196A11DB11D8093590390935A03A09329
:104250005B03B0935C03BF91AF919F918F913F91AE
:104260002F910F900FBE0F901F9018951F920F92D5
:104270000FB60F9211242F933F934F935F936F9339
:104280007F938F939F93AF93BF93EF93FF9380910F
:104290001B0690911C06A0911D06B0911E06892B4D
:1042A0008A2B8B2BD1F190911206E0911306F0919D
:1042B000140680818927808380911B0690911C06BB
:1042C000A0911D06B0911E06181619061A061B06A7
:1042D0009CF480911B0690911C06A0911D06B09144
:1042E0001E060197A109B10980931B0690931C0635
:1042F000A0931D06B0931E06FF91EF91BF91AF9161
:104300009F918F917F916F915F914F913F912F91ED
:104310000F900FBE0F901F901895809113010E946F
:104320002002EACF1F920F920FB60F9211242F9303
:104330003F934F935F936F937F938F939F93AF932D
:10434000BF93EF93FF9387E296E00E942F04FF91C3
:10435000EF91BF91AF919F918F917F916F915F91FD
:104360004F913F912F910F900FBE0F901F90189576
:104370001F920F920FB60F9211242F938F939F933A
:10438000EF93FF93E0913706F09138068081E0913A
:104390003D06F0913E0682FD1BC090818091400653
:1043A0008F5F8F7320914106821741F0E0914006A4
:1043B000F0E0E95DF94F958F80934006FF91EF9112
:1043C0009F918F912F910F900FBE0F901F90189576
:1043D0008081F4CF1F920F920FB60F9211240F938A
:1043E0001F932F933F934F935F936F937F938F937D
:1043F0009F93AF93BF93CF93DF93EF93FF93C091BE
:104400004F03D0915003209749F0EE85FF859D859D
:104410008E8D81FF18C080818923C1F4FF91EF91B7
:10442000DF91CF91BF91AF919F918F917F916F91CC
:104430005F914F913F912F911F910F910F900FBE60
:104440000F901F9018958081892341F7EB89FC8993
:1044500090818D898095892380838E899F890E9490
:104460005A0508E010E0888D998D0E945A05812F29
:1044700090E095958795182FEE85FF8520813D85E5
:10448000232309F01068015071F78E8D81FD10957E
:1044900080914E0390E001968F73992720914D03F0
:1044A000281799F0E0914E03F0E0E051FD4F1083A2
:1044B00080934E038A8D9B8D0E945A05EB89FC895F
:1044C00080819D89892B8083A9CF8E8D81608E8F7D
:1044D000F1CF1F920F920FB60F9211242F933F939B
:1044E0004F935F936F937F938F939F93AF93BF93FC
:1044F000EF93FF938091B900887F803609F44AC01A
:10450000F0F5883209F4A5C018F5803109F499C096
:10451000B8F4882309F4F0C0883009F492C0FF9100
:10452000EF91BF91AF919F918F917F916F915F912B
:104530004F913F912F910F900FBE0F901F901895A4
:10454000883109F486C0803251F78093CC0214C0C0
:10455000803409F49BC040F48033B9F38833F9F612
:104560008093CC0285ECAEC0803509F483C08835D9
:1045700009F494C0883499F60E94CF05D0CF8839C9
:1045800009F48AC038F5883729F050F4883611F0DC
:10459000803729F683E0809332031092CB0255C016
:1045A000883809F479C0803919F0803809F0B7CF1C
:1045B0008091CB02803208F06FC0E091CB0281E0A5
:1045C0008E0F8093CB028091BB00F0E0E555FD4F4C
:1045D00080833BC0803B39F0D0F4803A09F477C047
:1045E000883A09F09CCF84E0809332031092AA02AB
:1045F0001092A902F0E0E0E009958091A9028111F2
:104600000FC081E08093A9021092890209C0803C0A
:1046100009F4A8CF883C09F4A5CF883B09F07FCFE7
:10462000E091AA0281E08E0F8093AA02F0E0E757A2
:10463000FD4F80818093BB009091AA028091A902D6
:1046400029C08091EF028093BB0085EC8093BC0071
:1046500066CF9091EE028091ED02981758F5E091A7
:10466000EE0281E08E0F8093EE02F0E0E353FD4F07
:104670008081E9CFE091EE0281E08E0F8093EE021F
:104680008091BB00F0E0E353FD4F80839091EE02F8
:104690008091ED029817C8F285E8D8CFE091EE023C
:1046A00081E08E0F8093EE028091BB00F0E0E35337
:1046B000FD4F80838091310381115ECF81E0809333
:1046C000300384EA8093BC001092320328CF80919B
:1046D000CB02803230F4E091CB02F0E0E555FD4FA3
:1046E00010826091CB0270E08BEA92E0F0E0E0E0B3
:1046F00009951092CB0236CF1092CC023DCFCF92CB
:10470000DF92EF92FF92CF9310922A061092290621
:1047100098EEC92E93E0D92EE12CF12CC0922B06F5
:10472000D0922C06E0922D06F0922E0689E691E0BA
:10473000909328068093270685EC90E090933406AA
:104740008093330684EC90E0909336068093350690
:1047500080EC90E0909338068093370681EC90E0EF
:1047600090933A068093390682EC90E090933C0651
:1047700080933B0686EC90E090933E0680933D0646
:104780001092400610924106109242061092430683
:104790001092C7061092C606C092C806D092C906EB
:1047A000E092CA06F092CB068BE791E09093C506A3
:1047B0008093C40681E58093D006C1E0C093D10602
:1047C0001092D7061092D8061092DB061092DD06E2
:1047D00082E090E0A0E0B0E08093DE069093DF06F8
:1047E000A093E006B093E1061092F5061092FF0642
:1047F0001092FE068DE891E09093FD068093FC06F2
:104800001092010710921B0710921C0710921D07AF
:1048100010921E0710921F070E947B15109223070B
:1048200010922207C0922407D0922507E092260713
:10483000F092270789E991E0909321078093200760
:1048400010923707109236071092390710923807E6
:1048500010923B0710923A0710923D0710923C07C6
:1048600080913E078E7F8D7F80933E0781FB662778
:1048700060F96C2788E00E943A0161E088E00E94BC
:104880006801EEE7F1E0E491E0933007E3E6F1E060
:10489000E491F0E0EE0FFF1FE15BFE4F85919491F4
:1048A000909332078093310760E086E00E946801B0
:1048B00080913E0781FD04C061E086E00E943A01DC
:1048C00086E080932C07ECE7F1E0E491E0932D077C
:1048D000E1E6F1E0E491F0E0EE0FFF1FED5BFE4F4B
:1048E0008591949190932F0780932E071092420701
:1048F000109241078BEA91E09093400780933F0725
:1049000010924F078FEF80934E0710924D07109231
:10491000500787E280934A0710924B0710924C078A
:10492000109249071092480784E08093510782E073
:104930008093520781E08093530780E1809354076E
:1049400080E28093550780E48093560780E8809347
:10495000570750E040E063E08FE397E00E947A164B
:1049600089E0809369078FEB91E0909377078093BC
:10497000760710927A0781E991E090937907809306
:10498000780710927C0710927B0710926B071092A9
:104990006C0710926D0710926E0710926F071092BD
:1049A000700710927107109272071092730710929D
:1049B000750710927407CF91FF90EF90DF90CF9022
:1049C0000895CF93DF93CDB7DEB7CC54D1090FB69E
:1049D000F894DEBF0FBECDBF8091F20080618EBB28
:1049E00080E88093F2009EB39093F2008093610080
:1049F00011E010936100809361001092610078943F
:104A000084B5826084BD84B5816084BD85B58260D3
:104A100085BD85B5816085BD80916E008160809384
:104A20006E001092810080918100826080938100ED
:104A300080918100816080938100809180008160FD
:104A4000809380008091B10084608093B100809158
:104A5000B00081608093B00080919100826080936B
:104A600091008091910081608093910080919000ED
:104A700081608093900080917A00846080937A00B6
:104A800080917A00826080937A0080917A008160C0
:104A900080937A0080917A00806880937A001092E7
:104AA000C10082E080936A0762E00E946801109270
:104AB0003603109235031092340310923303809121
:104AC0007E008F7C80937E0010923203109331031E
:104AD0001092300361E082E10E943A0161E083E1DB
:104AE0000E943A018091B9008E7F8093B900809135
:104AF000B9008D7F8093B90088E98093B80085E480
:104B00008093BC0020E042E060E18FE397E00E94E8
:104B1000D01861E08FE397E00E94B7180E94F81B5D
:104B200080910107882321F08CEF96E00E94100EFF
:104B30001092DD061092DB061092D8061092D7066E
:104B40008AE08093D6060E9414028B0161E0809176
:104B5000D6060E94680161E08091D6060E943A0163
:104B6000FFB6F89480913703811127C0E5E6F1E0A4
:104B70008491E0E8F1E09491E82FF0E0EE0FFF1F60
:104B8000E05EFE4FA591B491EC91E92321F461E040
:104B90008AE00E943A0161E08AE00E9468018CB5D7
:104BA00080618CBD8CB580648CBD61E08DE00E941D
:104BB000680161E08BE00E946801809137038F5F9C
:104BC00080933703FFBE83E58093D0061092D10611
:104BD0008091D0069091D1060E94AE06FAE0FF2E99
:104BE0008FEF0E948806FA94F110FACF82ED96E0DA
:104BF0000E94B10620E030E0A90160E082ED96E07D
:104C00000E94C706F82E8093DC0621E0821709F483
:104C10002FC20E941402601B710B613D774050F35C
:104C200081E08093D70682ED96E00E947D06E091B8
:104C30003706F091380682E08083E0913306F091E8
:104C400034061082E0913506F091360682E28083C8
:104C500010923F06E0913B06F0913C0686E080838F
:104C6000E0913906F0913A06808180618083E0917D
:104C70003906F0913A06808188608083E091390698
:104C8000F0913A06808180688083E0913906F09146
:104C90003A0680818F7D8083DE0111967D01FD01C2
:104CA000E358F7402D96FFAFEEAF2D979E01235CA2
:104CB0003F4F27963FAF2EAF2797C90108962B96F7
:104CC0009FAF8EAF2B9780919005882309F44EC239
:104CD0008091530381114AC281E0809353036EE1B6
:104CE00071E090E080E00E942A1C81E090E00E9448
:104CF00054028091520390918F05992309F44EC27A
:104D0000811117C081E0809352036AE171E08FE066
:104D100090E00E942A1C64EF71E080E090E00E9425
:104D2000E20180918F05833008F483E090E00E94D7
:104D3000540280915103882309F446C08EE091E02B
:104D40000E949C0480917D0790917E07009709F056
:104D500031C22D96AEADBFAD2D97BA83A9838980A0
:104D60009A80092C000CAA08BB08B7FE29C28DE264
:104D70000E94970422273327A901281939094A09D3
:104D80005B0919A28E010F5D1F4FCA01B9012AE00C
:104D900030E040E050E00E941832605DD8016E9330
:104DA0008D01211531054105510579F701151105D1
:104DB00029F0B80187E296E00E94711B6DEC71E06A
:104DC00087E296E00E94711B80917B0790917C079F
:104DD0008430910508F00CC2019708F46CC28091F0
:104DE0005103882309F407C281E090E00E94540235
:104DF00064EF71E080E090E00E94E20180917B0727
:104E000090917C07019709F0E6C410923B0710923D
:104E10003A0710923907109238071092370710920C
:104E2000360782E490E090933D0780933C07909191
:104E30002C07963108F047C02FE030E03093370759
:104E40002093360720E430E0309339072093380769
:104E500027E230E030933B0720933A072091680027
:104E600084E0983048F031E09E3008F430E081E092
:104E700001C0880F3A95EAF7822B809368002DE6EF
:104E800030E0983050F02BE630E09E3030F02CE6E9
:104E900030E0963110F030E020E03093340720937A
:104EA0003307292F30E0983008F056C481E001C064
:104EB000880F9A95EAF78093350780913C07909187
:104EC0003D070E945A0580913A0790913B07892B34
:104ED00049F1E0914F03F091500327E0E032F207EF
:104EE00009F1309739F0A389B4899C91858980951F
:104EF00089238C9380913E078E7F80933E0710928A
:104F00004E0310924D0380E297E0909350038093FC
:104F10004F03E0913307F09134078081909135077A
:104F2000892B808361E085E00E94680161E085E073
:104F30000E943A010E94651C60E085E00E943A01EF
:104F400061E070E080E090E00E94E20161E085E0D5
:104F50000E943A0164E670E080E090E00E94E20185
:104F600060E085E00E943A0161E070E080E090E05E
:104F70000E94E20161E085E00E943A0164E670E08F
:104F800080E090E00E94E20180E30E94C5050E945B
:104F90004B0580918F05882309F4EBC384E080934F
:104FA0008F0580919005882309F4C3C480917B0705
:104FB00090917C071DA21CA248EE53E060E070E0D7
:104FC0004EA35FA368A779A727E531E03BA32AA3F7
:104FD0001CAE1BAE1EA68130910509F001C441E054
:104FE00066E471E0C7010E94E91FB701CE01829615
:104FF0000E944916CE0182960E941910882309F456
:1050000094C46BED70E090E080E00E942A1C81E087
:1050100090E00E94540264EF71E080E090E00E9412
:10502000E20110E000E043E0D42ECE0182960E941F
:105030002E10892B09F448C4CE0182960E947C1C54
:105040008B30910594F320915F052A3371F72091FD
:105050007B0730917C072230310509F4DAC30E94C6
:10506000A61C80918F0581112FC40F5F1F4FDDCFCC
:105070002AEA31E040E050E068E082ED96E00E94EC
:10508000C70682FF2AC0F092DD068091DD06C12CA2
:10509000D12CE12C70E4F72E823019F0C12CD12CE8
:1050A000760120E030E0A90167E382ED96E00E94FE
:1050B000C706A701960169E282ED96E00E94C70645
:1050C0008093DC068823D1F00E941402601B710BD0
:1050D000613D774030F388E0A4CDE4E0FE2E0E94ED
:1050E00090068093DC06FA94F110F9CF8A3A11F019
:1050F00082E097CD82E08093DD06C7CF8091DD0608
:105100008230D1F420E030E0A9016AE382ED96E03C
:105110000E94C706882311F086E083CD0E94900686
:10512000807C803C19F483E08093DD060E94900629
:105130000E9490060E94900682ED96E00E947D06F5
:1051400081E58093D00681E08093D1060E94CD084E
:10515000882329F08CEF96E00E94840B68CD80E0D4
:105160000E94CD08882309F462CDF4CF8091900588
:105170008111BFCD80915303882309F4BACD1092D9
:1051800053036CE171E090E080E00E942A1C809162
:105190008F058111C6C682E090E0A9CD882309F46D
:1051A000C8CD1092520368E171E08FE090E00E9458
:1051B0002A1CBFCDF701E81BF90BFA83E983CFCD99
:1051C000A501940119A28E010F5D1F4FCA01B901FB
:1051D0002AE030E040E050E00E941832605DF801C3
:1051E00062938F01211531054105510579F7DECD17
:1051F000049709F4A8C38091900581112DC662E03F
:1052000082E00E94680120916A0730E0F901E45DC4
:10521000FE4F8491F901EA58FE4F1491F901E55AC5
:10522000FE4F0491011191C530E020E080916B07A1
:10523000882309F4AEC5813009F041C640916C075E
:1052400050916D0760916E0770916F07452B462B4B
:10525000472B09F028C6232B09F0D6C540917007CB
:10526000509171076091720770917307452B462B1F
:10527000472B09F4C4C5823009F0C1C50E9414024D
:105280000091700710917107209172073091730798
:10529000601B710B820B930B603177428105910586
:1052A00008F4ADC510927007109271071092720742
:1052B00010927307A4C587E296E00E940F04892B21
:1052C00009F499CF8BE1E5EDF1E0D70101900D9262
:1052D0008A95E1F70E949216853509F49AC188F5FE
:1052E000813409F4E9C078F4803309F4BEC0813315
:1052F00009F4C0C0803271F480918F058F5F809374
:105300008F0585E1EEC1853409F46AC170F48234F9
:1053100009F4E9C080918F058F5F80938F050E940B
:105320009216803271F782E1DCC1803509F45DC1EB
:10533000813581F710928F050E94F01310921F079C
:1053400096C0843609F479C108F5803609F470C135
:10535000813609F46FC18635E9F684E090E00E9459
:10536000C51680919105803309F0E2C180919205C4
:1053700081110AC080919305813009F4D5C108F4E8
:10538000D1C1823009F4D2C18FEFA6C0853709F4AC
:10539000D3C108F044C0843709F0BCCF00914B035F
:1053A00010914C030E949216D82E0E949216C82E7D
:1053B0000E949216B82E0E949216803209F09CCF5D
:1053C0008D2D90E0982F8827C80ED92ED11C84E10E
:1053D0000E949704F6E4BF1296C1B801660F771FCA
:1053E000072E000C880B990B20919005222339F091
:1053F00010E000E0960141E955E00E9436138091EB
:10540000900501E915E0C801815995408C159D056D
:10541000E8F5D8018D918D010E949704F4CF89376A
:10542000B9F18A3709F076CF0E949216803209F0DE
:1054300063CF8BE197E00E945415C0901B07D0907A
:105440001C0700911D0710911E0784E10E9497041C
:105450008C2D0E9497048D2D0E949704802F0E940E
:105460009704812F0E94970411C010928F050E940B
:10547000B416C1CE0E949216803209F03DCF84E16D
:105480000E94970481ED90E00E949C0480E129C174
:105490000E949216803209F02FCF84E10E94970477
:1054A000B70187E296E00E94711B6DEC71E087E224
:1054B00096E00E94711BEACF0E949216813879F023
:1054C00020F4803841F080E007C0823851F0833901
:1054D000D1F783E501C083E00E949D168CCE86E063
:1054E000FBCF84E0F9CF84E190E00E94C516809163
:1054F00091058093380380919205809339038091C0
:10550000930580933A038091940580933B038091A7
:10551000950580933C038091960580933D0380918F
:10552000970580933E038091980580933F03809177
:1055300099058093400380919B0590E0982F8827E0
:1055400020919C05820F911D90934203809341030B
:1055500080919D0590E0982F882720919E05820FCD
:10556000911D909344038093430380919F0590E0A5
:10557000982F88272091A005820F911D90934603B4
:10558000809345038091A10590E0B0E0A0E0BA2FA0
:10559000A92F982F88272091A205820F911DA11D68
:1055A000B11DDC01992788274091A30550E0542FB5
:1055B0004427052E000C660B770B840F951FA61F42
:1055C000B71F2091A405820F911DA11DB11D8093CD
:1055D000470390934803A0934903B0934A0347CFEE
:1055E00085E090E00E94C51642CF80919005811120
:1055F00002C00E94361680919005811138CF0E941A
:105600009216803209F078CE84E10E94970481E1FD
:1056100068C00E949216182F0E94921690E0982F50
:105620008827810F911D90934C0380934B031FCFCC
:105630000E9492160E9492161ACF0E949216082F6C
:1056400010E0102F00270E949216080F111D0E94D3
:105650009216863469F5C0904B03D0904C03C80174
:105660000E94C51690E080E00E948E160E9492165D
:105670008032B9F484E10E949704B601660F771F67
:10568000072E000C880B990B980141E955E00E9408
:10569000A11580E10E94970481E090E00E948E169F
:1056A000AACD80918F058F5F80938F0585E1F2CF22
:1056B000853409F0ACCF8091450390914603801763
:1056C000910790F480918F058F5F80938F0511E192
:1056D0000E949216803209F00FCE84E10E94970456
:1056E000812F0E94970487CD013211053CF080E2A2
:1056F00090E00E94E61600521109F6CFC8010E9400
:10570000E61610E1E5CFB5E4BB1281CF10E000E072
:10571000C016D10609F4BACE8FEF0E9497040F5F2E
:105720001F4FF6CF8EE1D8CE85E9D6CE8FE0D4CE0E
:10573000803F09F029CEC7CE0E949216803209F030
:10574000DBCD84E10E9497048EE10E94970485E9F5
:105750000E9497048AE086CE9E3040F4285031099A
:1057600081E001C0880F2A95EAF7A5CB2E503109B8
:10577000F7CF80E50E94C5050E944B0580918F05FB
:1057800081110CCC85E70E94C5050E942905C82E11
:105790000E942905D82E0E942905082F0E9429055C
:1057A000182F0E94290534E1C3120FC09EE1D912BF
:1057B0000CC0053951F41F3041F4803131F481E0DF
:1057C0008093900580919005ECCB1092900584E039
:1057D00080938F05F7CF0E94651C0E943616E1CB9F
:1057E0008230910521F441E069E371E0FBCB03973E
:1057F00021F441E06CE271E0F5CB1C821B824D8309
:105800005E836F8378873A8329831B8E1A8E1D8669
:10581000ECCB0115110509F022CC20916005203355
:1058200009F04FC020916105243309F04AC020914E
:105830006205203309F045C020916305203309F04B
:1058400040C0209164052033E1F5209165052033A7
:10585000C1F5209166052033A1F52091670520331D
:1058600081F5439771F560916905809168050E9403
:10587000941D8093910560916B0580916A050E944B
:10588000941D8093920560916D0580916C050E9436
:10589000941D8093930560916F0580916E050E9421
:1058A000941D8093940524E030E041E955E060E0E8
:1058B00070E0CB010E94A1158111D3CBD0928F054E
:1058C000D0CB83E080938F05CE0182960E94A21FE9
:1058D00080917B0790917C07019781F510918F054E
:1058E00081E50E94C5050E944B05111124C08091DD
:1058F0008F05882319F088E080938F05109290051A
:1059000062E085E00E94680169ED70E090E080E06F
:105910000E942A1C1092510380918F0581116BCC3B
:1059200082E090E00E94540266CC85E080938F056F
:10593000CFCF84E0FBCF10938F05E0CF0E94F01310
:1059400010921F07E1CF80915103882309F453CCB3
:1059500081E090E00E94540264EF71E080E090E00A
:105960000E94E20110928F056DEF70E081E090E0FF
:105970000E94E61BA6E4B1E02996BFAFAEAF29971F
:1059800041E029966EAD7FAD2997CE0182960E94A7
:10599000E91FCE0182960E941910811125C08091C5
:1059A0008F058F5F80938F0580918F056EEE70E07D
:1059B000811102C06DED70E081E090E00E94E61B75
:1059C00080918F05882309F4BDC183E090E00E9497
:1059D000540260EA7FE080E090E00E94E2010E94D1
:1059E000F81B10928F0507CC88E02796EEADFFAD2F
:1059F000279711928A95E9F7D12CC12C30E3832E99
:105A0000CE0182960E942E10892B09F47AC1CE0114
:105A100082960E947C1CEBADFCAD44244A94542C2D
:105A20003201309721F0428453846484758482303B
:105A300091050CF4C4C020915F052A3309F0BFC062
:105A400020915103222309F430C1C114D10409F07B
:105A50009CC0A8E6B5E0FE01FD968D9181932B9642
:105A60002EAD3FAD2B97E217F307B9F7809268058B
:105A700033E43093690589E380936A0594E3909356
:105A80006B0580926C0580926D05A3E3A0936E0573
:105A9000B1E4B0936F050E94651C80916605809308
:105AA0000E018091670580930F011092100140E173
:105AB00050E070E060E08EE091E00E94D630162F5A
:105AC0008091620580930E018091630580930F01A0
:105AD0008091640580931001809165058093110188
