:100000000C94D3000C94FB000C94FB000C941F2068
:100010000C941F200C941F200C94FB000C94FB00EC
:100020000C94FB000C94FB000C94FB000C94FB0064
:100030000C94FB000C94FB000C94FB000C94FB0054
:100040000C94811F0C94FB000C94ED1F0C94C71FA3
:100050000C94FB000C94FB000C94FB000C94FB0034
:100060000C949E200C94FB00204D455247452043A4
:100070004F4D42494E45440020202020434F4D42E1
:10008000494E454400202020424F4F544C4F41449C
:10009000455200202020204649524D5741524500EC
:1000A000200020202020204C4754495350004C472A
:1000B000544953502026204C475444554445002071
:1000C000007C3C3E5E2B3D3F2F5B5D3B2C2A225C3F
:1000D000004156522049535000200050004D4552D7
:1000E0004745205355434345535346554C00202024
:1000F0004D45524745204641494C4544004D4552E7
:1001000047494E4720434F4D42494E4544004672B1
:1001100065652052414D2000200045002000500020
:1001200000000000240027002A002D000000000825
:10013000500201000003040700000000000000005E
:100140000000000000002300260029002C00000011
:100150000000250028002B002E00040404040404E1
:10016000040402020202020203030303030305055F
:100170000505050505010204081020408001020460
:100180000810200102040810200208010410204079
:1001900055504C4F41444552455220504D4F4445D7
:1001A0000000B421D12D11241FBECFEFD8E0DEBF57
:1001B000CDBF12E0A0E0B1E0ECEAF7E602C00590A6
:1001C0000D92A034B107D9F727E0A0E4B2E001C056
:1001D0001D92AD36B207E1F710E0C2EDD0E004C0E9
:1001E0002197FE010E94DB30C13DD107C9F70E9473
:1001F0001D230C94C9330C94000081508B3088F57A
:10020000E82FF0E0EA5FFE4F0C94DB301B011F018A
:100210001101170131013101220128012C013201A4
:100220003601809180008F778093800008958091BF
:1002300080008F7DF9CF84B58F7784BD089584B514
:100240008F7DFBCF8091B0008F778093B0000895B1
:100250008091B0008F7DF9CF809190008F7780934F
:1002600090000895809190008F7DF9CF809190004B
:10027000877FF5CF1F93CF93DF93282F30E0F901CD
:10028000E45DFE4F8491F901EB58FE4FD491F901E2
:10029000E65AFE4FC491CC23A9F0162F81110E947B
:1002A000FD00EC2FF0E0EE0FFF1FE25BFE4FA5918B
:1002B000B4918FB7F894EC91111108C0D095DE235A
:1002C000DC938FBFDF91CF911F910895DE2BF8CF84
:1002D000CF93DF93282F30E0F901EB58FE4F449184
:1002E000265A3E4FF9012491843011F583E0809322
:1002F000A0002223D1F0822F90E0880F991FFC01EB
:10030000E05EFE4FA591B491FC01E25BFE4FC5910A
:10031000D491611122C09FB7F8948C9140958423A9
:100320008C938881482348839FBFDF91CF910895A4
:100330009AEE980F923020F48FEF84BF84BFD9CF0C
:100340008A31B9F68091F00082608EBB80E880939C
:10035000F0008EB38093F000CCCF623051F49FB7A1
:10036000F8942C91842F809582238C93E8814E2BD6
:10037000DACF8FB7F894EC914E2B4C938FBFD5CF3B
:100380003FB7F8948091590390915A03A0915B0371
:10039000B0915C0326B5A89B05C02F3F19F00196CC
:1003A000A11DB11D3FBFBA2FA92F982F8827BC01CF
:1003B000CD01620F711D811D911D660F771F881F72
:1003C000991F08958F929F92AF92BF92CF92DF9222
:1003D000EF92FF924B015C010E94C0016B017C0116
:1003E0000E94C0016C197D098E099F09683E734007
:1003F00081059105A8F321E0821A9108A108B108AE
:1004000088EEC80E83E0D81EE11CF11C8114910413
:10041000A104B10429F7FF90EF90DF90CF90BF9037
:10042000AF909F908F900895CF93DF9320915307C3
:100430002223C9F0EC0161E0809153070E943A0148
:1004400064E670E080E090E00E94E20160E080916C
:1004500053070E943A0164E670E080E090E00E9459
:10046000E201219741F7DF91CF9108952FB7F894DA
:1004700060915503709156038091570390915803F2
:100480002FBF0895AF92BF92CF92DF92EF92FF926B
:100490000F931F93CF93DF936C017B018B01040FAC
:1004A000151FEB015E01AE18BF08C017D10759F048
:1004B0006991D601ED91FC910190F081E02DC6018A
:1004C0000995892B79F7C501DF91CF911F910F9184
:1004D000FF90EF90DF90CF90BF90AF900895FC0118
:1004E000538D448D252F30E0842F90E0821B930B99
:1004F000541710F0CF96089501970895FC01918D3F
:10050000828D981761F0A28DAE0FBF2FB11D5D9641
:100510008C91928D9F5F9F73928F90E008958FEFE3
:100520009FEF0895FC01918D828D981731F0828D97
:10053000E80FF11D858D90E008958FEF9FEF0895EE
:10054000FC01918D228D892F90E0805C9F4F821B52
:1005500091098F739927089581E196E00E94A00286
:1005600021E0892B09F420E0822F089580E090E0BB
:10057000892B29F00E94AC0281110C94000008958F
:10058000FC01A48DA80FB92FB11DA35ABF4F2C9108
:10059000848D90E001968F739927848FA689B789FF
:1005A0002C93A089B1898C9180648C93938D848DD8
:1005B000981306C00288F389E02D80818F7D8083A7
:1005C0000895EF92FF920F931F93CF93DF93EC0167
:1005D00081E0888F9B8D8C8D981316C0E889F989EE
:1005E000808185FF11C0EE89FF896083E889F989E0
:1005F00080818064808381E090E0DF91CF911F91C2
:100600000F91FF90EF900895F62E0B8D10E00F5F85
:100610001F4F0F731127E02E8C8D8E110CC00FB65B
:1006200007FCFACFE889F989808185FFF5CFCE01F3
:100630000E94C002F1CFEB8DEC0FFD2FF11DE35AAC
:10064000FF4FF0820B8FEA89FB8980818062D2CFD5
:10065000682F81E196E00C94E1020F931F93CF93F2
:10066000DF938C01D0E0C0E0F801EC0FFD1F649136
:10067000662341F081E196E00E94E102892B11F0AE
:100680002196F2CFCE01DF91CF911F910F91089566
:10069000CF93DF93EC01888D8823B9F0AA89BB89B9
:1006A000E889F9898C9185FD03C0808186FD0DC0A4
:1006B0000FB607FCF7CF8C9185FFF2CF808185FFC5
:1006C000EDCFCE010E94C002E9CFDF91CF91089516
:1006D00020914F03309150032817390771F49091FE
:1006E0004D0380914E03981741F0E0914D03F0E0E7
:1006F000E051FD4F808190E008958FEF9FEF0895C6
:10070000089520914F03309150032817390771F451
:1007100080914E0320914D0390E0805C9F4F821B9F
:10072000910960E470E00E94C730089590E080E095
:10073000089520914F033091500328173907B9F4D9
:1007400090914D0380914E03981789F0E0914D03ED
:10075000F0E0E051FD4F808120914D0330E02F5FAC
:100760003F4F2F73332720934D0390E008958FEF71
:100770009FEF0895CF93DF93D0E0C0E08AE097E049
:100780000E948103892B61F4C83E83E0D80791F071
:1007900061E070E080E090E00E94E2012196EECFFF
:1007A000C83ED34039F08AE097E00E949903DF9178
:1007B000CF91089580E0FBCFCF930E94BA03C82F5A
:1007C0000E94BA03C43111F4803119F083E08093A0
:1007D0008F05CF91089501970000E9F708956F9272
:1007E0007F928F929F92AF92BF92CF92DF92EF92C1
:1007F000FF920F931F93CF93DF938C01F62EFC0192
:10080000A48CB58CA114B104A9F481E090E0938389
:10081000828390E080E0DF91CF911F910F91FF9054
:10082000EF90DF90CF90BF90AF909F908F907F9090
:100830006F900895C189D289E0889E2C90947FB6EC
:10084000868DF82FF2706F2E81FDF094F8948881D8
:10085000662029F18E298883C5010E94EB0398E068
:10086000892ECF2CD12C8881F0FE1BC08E29888345
:10087000C5010E94EB03D594C794FC2C8A94811087
:10088000F0CF8881662079F0892188837FBEF801C6
:10089000848D958D0E94EB0381E090E0BCCF89218F
:1008A000DACF8921E4CFE82AE882F0CF682F8AE006
:1008B00097E00E94EF0360E28AE097E00C94EF0378
:1008C00085ED8093BC008091BC0084FDFCCF10922C
:1008D00032030895613298F420913203243089F470
:1008E0006093A902282FA9E8B2E0FC018E2F821B99
:1008F000861710F080E0089581918D93F7CF81E005
:10090000089582E00895E091360380913503E81759
:1009100030F4F0E0E759FD4F808190E008958FEFCB
:100920009FEF089590913603809135032FEF3FEFAD
:10093000981748F4E92FF0E0E759FD4F208130E0A7
:100940009F5F90933603C90108958091350390917C
:100950003603891B990B0895CF92DF92EF92FF9295
:100960000F931F93CF93DF937C01CB018A012091DA
:100970006802222389F0EB016B01C40ED51ECC1551
:10098000DD0569F06991D701ED91FC910190F0814D
:10099000E02DC7010995F3CF642F0E946A04C801B6
:1009A000DF91CF911F910F91FF90EF90DF90CF904B
:1009B0000895CF93DF931F92CDB7DEB7698320915F
:1009C00068022223F9F020913303203258F021E00D
:1009D00030E0FC013383228390E080E00F90DF91D0
:1009E000CF91089580913403E82FF0E0E85BFD4F4C
:1009F000998190838F5F809334038093330381E0E8
:100A000090E0ECCF61E0CE0101960E946A04F7CF3E
:100A10008FB7F894809142028FBF089561E0FC0186
:100A200084810E943A018091410281111092410219
:100A300008958EBD0000CE99FECF8EB594E499BB8B
:100A400008958FEF0C9419050F931F93CF93DF93A5
:100A5000EC010E9436028B010E9421058F3F69F054
:100A60000E943602601B710B6C177D07A8F380E0B3
:100A7000DF91CF911F910F91089581E0F9CF8CBD47
:100A80009DBD0895CF93DF93EC01809141028111C8
:100A900009C081E0809341028091BA069091BB0623
:100AA0000E943F0560E08C81DF91CF910C943A0168
:100AB0008F929F92AF92BF92FF920F931F93CF930B
:100AC000DF93EC01F62E49015A018E81882389F0CB
:100AD0008F8198859C012F5F3F4F38872F8382300D
:100AE000924018F40E942105F3CFCE010E940E051A
:100AF0001E82CE010E9442058CE291E00E942405F4
:100B00008F2D80640E94190508E110E0D501C40111
:100B1000002E04C0B695A795979587950A94D2F7AD
:100B20000E94190508501109083F8FEF180771F747
:100B300085E9FF2021F028E087E8F2128FEF0E947C
:100B4000190510E00E9421058A8787FF04C01F3F16
:100B500011F01F5FF7CFDF91CF911F910F91FF90A1
:100B6000BF90AF909F908F900895AF92BF92CF9219
:100B7000DF92EF92FF920F931F93CF93DF93EC01DD
:100B80006901C801820F931F8130924050F58E8118
:100B9000882379F088819981AA81BB818417950780
:100BA000A607B70731F48F819885C816D90608F0D3
:100BB00042C0488359836A837B838B85833039F0B5
:100BC00089E0440F551F661F771F8A95D1F79A0158
:100BD000AB0161E1CE010E945805882389F083E0D2
:100BE0008D83CE010E940E0580E0DF91CF911F9191
:100BF0000F91FF90EF90DF90CF90BF90AF9008954E
:100C00000E9436025B010E9421058A878F3F69F4AA
:100C10000E9436026A197B096D327140A0F38FE0A1
:100C20008D83CE010E940E05DCCF8E3F89F418869D
:100C30001F8281E08E838F8198858C159D0550F4ED
:100C40000E9421058F819885019698878F83F3CF25
:100C50008DE0E6CF6701E00EF11E0E942105F6014E
:100C600081936F01EE15FF05C1F78F819885080FFD
:100C7000191F18870F838985882319F001151240E1
:100C8000A0F08E81882389F08F8198859C012F5F49
:100C90003F4F38872F838230924018F40E942105FD
:100CA000F3CFCE010E940E051E8281E09ECFCF922F
:100CB000DF92EF92FF920F93CF93DF93EC016901E4
:100CC00082E1411551056105710599F08B858330ED
:100CD00039F089E0440F551F661F771F8A95D1F7B9
:100CE0009A01AB0168E1CE010E945805882319F0F2
:100CF00084E08D832DC08EEF0E94190576018EEF62
:100D0000D81AF70181917F010E941905EC14FD04A6
:100D1000C1F78FEF0E9419058FEF0E9419050E94FD
:100D200021058A878F71853071F4011116C0CE01BB
:100D30000E940E0581E0DF91CF910F91FF90EF901F
:100D4000DF90CF90089581E18D83CE010E940E0542
:100D5000CE010E940E0580E0EECF88E592E00E9471
:100D60002405811102C085E1C4CF20E030E0A90153
:100D70006DE0CE010E945805882311F084E1B9CFBF
:100D80000E9421058111FACFD2CF0F9340914402E6
:100D900050914502609146027091470241155105FC
:100DA0006105710599F0082F2DE533E080915D050F
:100DB00090915E050E945706882349F010924402E4
:100DC00010924502109246021092470281E00F9164
:100DD00008950F93CF93C82F80914302811105C0CE
:100DE000C1E08C2FCF910F91089540910001509157
:100DF000010160910201709103010C2F2DE533E098
:100E000080915D0590915E050E945706811102C098
:100E1000C0E0E7CFCC2321F381E00E94C506882300
:100E2000B9F310924302DDCF8F929F92AF92BF929F
:100E3000EF92FF920F931F93CF934B015C01C42F4E
:100E40008091000190910101A0910201B0910301F4
:100E500088159905AA05BB0551F181E00E94E906B4
:100E600081110BC080E0CF911F910F91FF90EF9007
:100E7000BF90AF909F908F9008958DE5E82E83E00E
:100E8000F82E00E012E030E020E0B501A4018091EE
:100E90005D0590915E050E94B505882319F3809247
:100EA000000190920101A0920201B09203014091D1
:100EB00043024C2B4093430281E0D5CF8F929F9207
:100EC000AF92BF92CF92DF92EF92FF92CF932CEB33
:100ED00036E030935E0520935D05882309F46DC0EC
:100EE00040E060E070E0CB010E94140781110BC06C
:100EF00080E0CF91FF90EF90DF90CF90BF90AF90C8
:100F00009F908F90089580911B058F7789F780912E
:100F1000270590912805A0912905B0912A058436CE
:100F20009105A105B10520F3C0902305D0902405BB
:100F3000E0902505F0902605C114D104E104F104E8
:100F4000B9F240E0C701B6010E941407882381F27C
:100F500080916803909169038115924049F6A091B0
:100F60006D03AA2329F260916B0370916C036115E4
:100F7000710509F4BDCF20916A03222309F4B8CF8B
:100F8000A093DA062093CC0690E080E030E0E1E028
:100F9000F0E0C82FAF01082E02C0440F551F0A947D
:100FA000E2F72417350769F041E0480F01968930D0
:100FB000910579F74093D5069BCFC12CD12C7601B2
:100FC000C0CF8093D506209173033091740350E015
:100FD00040E02115310541F42091810330918203D5
:100FE00040918303509184032093CD063093CE0625
:100FF0004093CF065093D00646015701860E971EA8
:10100000A11CB11C8092DB069092DC06A092DD064A
:10101000B092DE06E0916E03F0916F03F093E1066B
:10102000E093E006B0E00E947630DC01CB01880D51
:10103000991DAA1DBB1D8093E2069093E306A09321
:10104000E406B093E50625E0EE0FFF1F2A95E1F7D1
:10105000E150FE4FEF2FFF27E6958E0F9F1FA11D3A
:10106000B11D8093D6069093D706A093D806B0936F
:10107000D9068090700390907103B12CA12C81143B
:10108000910441F480907D0390907E03A0907F03B3
:10109000B0908003C81AD90AEA0AFB0AC80CD91C06
:1010A000EA1CFB1C04C0F694E794D794C794CA9535
:1010B000D2F7C092D106D092D206E092D306F09237
:1010C000D40685EFC8168FE0D806E104F10428F4B1
:1010D0008CE08093DF0681E00CCF80E125EFC21623
:1010E0002FEFD206E104F104A0F3809189039091DF
:1010F0008A03A0918B03B0918C038093E2069093B6
:10110000E306A093E406B093E50680E2E2CF4F92B7
:101110005F926F927F928F929F92AF92BF92CF9287
:10112000DF92EF92FF920F931F93CF93DF93EC0127
:10113000423051056105710590F480E0DF91CF9157
:101140001F910F91FF90EF90DF90CF90BF90AF90E5
:101150009F908F907F906F905F904F9008958985BA
:101160009A85AB85BC850196A11DB11D8417950795
:10117000A607B70710F3CB88DC88ED88FE888F8937
:10118000803109F042C0BB27A72F962F852F480139
:1011900059012A013B01C80ED91EEA1EFB1E80918F
:1011A000000190910101A0910201B0910301C816C4
:1011B000D906EA06FB0699F58F898031C1F5B3019E
:1011C000A201552766277727440F551F435A5C4FC6
:1011D000FA01918280828091430281608093430270
:1011E0008A89823080F08D819E81AF81B8858C0D97
:1011F0009D1DAE1DBF1D8093440290934502A09398
:101200004602B093470281E099CFDB01CA01E7E0D3
:10121000B695A79597958795EA95D1F7B8CF40E011
:10122000C701B6010E9414078111C6CF86CFB30152
:10123000A2014F77552766277727440F551F440F84
:10124000551F435A5C4FFA0180829182A282B38279
:10125000C2CF8F929F92AF92BF92CF92DF92EF92C6
:10126000FF920F931F93CF93DF93FC0181859285AB
:10127000A385B4850196A11DB11D84179507A60706
:10128000B70770F480E0DF91CF911F910F91FF902D
:10129000EF90DF90CF90BF90AF909F908F90089588
:1012A00083889488A588B6888789803189F5BB278B
:1012B000A72F962F852FE9016A017B018F01BC01C1
:1012C000CD01680D791D8A1D9B1D809000019090B5
:1012D0000101A0900201B090030186169706A806AE
:1012E000B90601F5F8018789803111F5DD24EE2476
:1012F000FF24F601EE0FFF1FE35AFC4F808191811E
:10130000B0E0A0E088839983AA83BB8381E0BBCF50
:10131000DB01CA01C7E0B695A79597958795CA9551
:10132000D1F7C9CF40E00E9414078111DBCFAACFCB
:10133000E894C7F8DD24EE24FF24F601EE0FFF1F2A
:10134000EE0FFF1FE35AFC4F80819181A281B38190
:10135000BF70D8CF4F925F926F927F92AF92BF9241
:10136000CF92DF92EF92FF920F931F93CF93DF9371
:1013700000D000D0CDB7DEB78C0149835A836B8390
:101380007C835901C12CD12C7601412C82E0582E4E
:10139000612C712C49815A816B817C819E012F5F68
:1013A0003F4FC8010E942909882339F1F80185853A
:1013B000A301920104C0220F331F441F551F8A95B9
:1013C000D2F7DA01C901C80ED91EEA1EFB1E4981F7
:1013D0005A816B817C818789803111F188EF9FEF81
:1013E000AFEFBFE0481759076A077B0798F2F5018E
:1013F000C082D182E282F38281E00F900F900F9041
:101400000F90DF91CF911F910F91FF90EF90DF90A0
:10141000CF90BF90AF907F906F905F904F90089566
:1014200088EF9FEFA0E0B0E0DDCFCF93DF93FC012A
:101430002581222321F080E0DF91CF910895EC01F6
:101440008091DF06803159F582E08583178A108EFE
:10145000118E128E8091E0069091E106B0E0A0E03E
:1014600025E0880F991FAA1FBB1F2A95D1F7838BF0
:10147000948BA58BB68B88EC96E09C8F8B8F81E04C
:101480008C831E821F82188619861A861B861C86EC
:101490001D861E861F86188A198A1A8ACDCF803229
:1014A00051F683E085834091E2065091E306609116
:1014B000E4067091E506478B508F618F728F9F0114
:1014C0002D5E3F4F88EC96E00E94AA098111D3CF90
:1014D000B2CF8F929F92AF92BF92CF92DF92EF9254
:1014E000FF920F931F93CF93DF93EC018D818111B6
:1014F0000EC080E0DF91CF911F910F91FF90EF9090
:10150000DF90CF90BF90AF909F908F9008950B8900
:101510001C892D893E89041715072607370748F3CC
:101520004A015B01823031F48A869B86AC86BD8697
:1015300081E0E0CF81149104A104B10449F41E823A
:101540001F82188619861A861B861C861D86F0CF78
:101550000A851B852C853D85EB8DFC8D858590E06E
:101560000996B901A8014150510961097109082E74
:1015700004C076956795579547950A94D2F77501FB
:101580006401E1E0CE1AD108E108F10804C0F69444
:10159000E794D794C7948A95D2F7C416D506E60681
:1015A000F70620F0012B022B032B11F58F89988D64
:1015B000A98DBA8D8E839F83A887B9878E010A5F14
:1015C0001F4FC114D104E104F10409F4ADCF4E81E1
:1015D0005F816885798598018B8D9C8D0E94290992
:1015E00091E0C91AD108E108F1088111EACF81CF51
:1015F000C41AD50AE60AF70AE1CF3F924F925F92EA
:101600006F927F928F929F92AF92BF92CF92DF9212
:10161000EF92FF920F931F93CF93DF93CDB7DEB777
:101620002C970FB6F894DEBF0FBECDBF5C01DC0176
:101630005B968D909C905C9716964D905D906D900A
:101640007C901997411451046104710409F468C035
:10165000BFEF4B1A5B0A6B0A7B0A312CF4018185C0
:101660009285A385B4859C01AD012F5F3F4F4F4FFD
:101670005F4F29873A874B875C87730162011D8220
:101680001E821F821886F40181859285A385B48508
:101690002D813E814F815885281739074A075B07FE
:1016A00008F056C089859A85AB85BC858C159D054B
:1016B000AE05BF0550F482E0C82ED12CE12CF12CF0
:1016C00092E0492E512C612C712C9E012F5F3F4FCF
:1016D000B701A601C4010E9429098823C9F18981A3
:1016E0009A81AB81BC81892B8A2B8B2B09F1260136
:1016F00037019FEF491A590A690A790A2D813E81FB
:101700004F8158852F5F3F4F4F4F5F4F2D833E8353
:101710004F8358873FEFC31AD30AE30AF30AB3CFC4
:10172000F40140805180628073803324339496CFDB
:10173000C414D504E604F70409F70FEF1FEF2FEFE9
:101740003FE0B701A601C4010E948708811119C0BA
:1017500080E02C960FB6F894DEBF0FBECDBFDF91B0
:10176000CF911F910F91FF90EF90DF90CF90BF909E
:10177000AF909F908F907F906F905F904F903F9031
:101780000895D50116964D915D916D917C911997B3
:10179000411551056105710539F097018601C401B4
:1017A0000E9487088823A1F2D5011696CD92DD927A
:1017B000ED92FC921997332051F0D701C6010196A2
:1017C000A11DB11DF40180839183A283B383F50130
:1017D0008789908DA18DB28D892B8A2B8B2B39F423
:1017E0008481C78AD08EE18EF28E80688483F50171
:1017F00084818062848381E0ACCF1F93CF93DF9399
:10180000FC0125812223D1F1162FEC01848187FF71
:101810002AC0668577858089918941E00E941407F6
:10182000882361F1EA8980E2E89FF0011124E35AFC
:10183000FC4F309719F18D81823040F48B899C895F
:10184000AD89BE89848F958FA68FB78F8F89988D2C
:10185000938F828F8F89988DA98DBA8DB58BA48B2C
:101860008C818F778C83111103C08C818F7E8C8348
:10187000812FDF91CF911F910C94E90680E0DF91D9
:10188000CF911F910895FF920F931F93CF93DF93F2
:10189000EC018D81813041F090E080E0DF91CF91CB
:1018A0001F910F91FF9008958C8181FFF5CF82FDEC
:1018B0001BC000915D0510915E05C8010E944205A4
:1018C0000E942105F82EC8010E940E058FEFF81224
:1018D000E3CF8C8185FF1BC060E0CE010E94FD0B31
:1018E0008C818F7D8C83D8CF4B895C896D897E8973
:1018F0008A859B85AC85BD8584179507A607B707A4
:10190000C1F2CE010E94690A8111D3CFC5CF4091A7
:101910004402509145026091460270914702452B66
:10192000462B472B21F080E00E94C506B5CF806191
:101930008C832A853B85317080E092E0821B930B7B
:10194000ADCFCF93DF93EC0161E00E94FD0B8823C4
:1019500011F01D8281E0DF91CF9108952F923F9287
:101960004F925F926F927F928F929F92AF92BF92AF
:10197000CF92DF92EF92FF920F931F93CF93DF935B
:1019800000D000D01F92CDB7DEB77C015B01342EB2
:101990005D83DC0115968C911597813009F0CEC0DE
:1019A00014962C9021FECAC022FCB4C0C32CDD804A
:1019B00022947FE027222094B22DB1702B2ED701E4
:1019C0001A964D915D916D917C911D97C114D10432
:1019D00009F428C15B968D919C915C97FC01748001
:1019E0007A948A019B0169E03695279517950795AA
:1019F0006A95D1F770228A011170711020C001150B
:101A00001105E9F416964D915D916D917C911997B0
:101A1000411551056105710509F099C057968D91E1
:101A20009D910D90BC91A02D0097A105B10509F0E5
:101A3000B0C0C7010E94FD0A882309F47FC080E07E
:101A400092E0801B910B46018C159D0508F44C011A
:101A5000D7015B964D915C915C9716968D919D9107
:101A60000D90BC91A02D0297A109B109FA0125851D
:101A700004C0880F991FAA1FBB1F2A95D2F746855D
:101A8000578560897189840F951FA61FB71F9C0118
:101A9000AD01270D311D411D511D29013A01811450
:101AA00032E0930609F07BC0809100019091010122
:101AB000A0910201B091030184159505A605B70513
:101AC00059F48FEF9FEFDC018093000190930101A7
:101AD000A0930201B0930301022D9501B301A2016D
:101AE00080915D0590915E050E945706882331F133
:101AF0009EEFB91AC818D908F70182859385A48585
:101B0000B585880D991DA11DB11D82879387A48776
:101B1000B58755CFF70143895489658976898285D0
:101B20009385A485B585481759076A077B0709F48B
:101B30003DCFC7010E94690A811138CF81E090E052
:101B4000D70113969C938E93129780E007C09E0155
:101B50002F5F3F4F0E942909811102C090E079C098
:101B600089819A81AB81BC81F701238D348DF90184
:101B7000278948EF5FEF60E070E0203121F048EF07
:101B80005FEF6FEF7FE084179507A607B70708F0B0
:101B900050CFF70186839783A087B18750CF011577
:101BA000110599F5D7011A964D915D916D917C9132
:101BB0001D9753968D919D910D90BC91A02D481726
:101BC00059076A077B0708F181E00E94E90688232C
:101BD00009F4B4CF409200015092010160920201D9
:101BE0007092030180914302816080934302C80197
:101BF000835A9C4FD5019C01280D391DFC012E17DD
:101C00003F0759F04D914193FACF41E0C301B20132
:101C10000E9414078111EBCF91CF281B390BA20E24
:101C2000B31E68CFF70183899489A589B689841783
:101C30009507A607B70738F48481438B548B658BCF
:101C4000768B80688483F701848183FD1AC0832D9D
:101C50009D810F900F900F900F900F90DF91CF917B
:101C60001F910F91FF90EF90DF90CF90BF90AF90BA
:101C70009F908F907F906F905F904F903F902F90AC
:101C8000089561E0C7010E94FD0B882309F456CF37
:101C9000DECFCF93DF931F92CDB7DEB7698341E0EC
:101CA00050E0BE016F5F7F4F0E94AE0C0F90DF913E
:101CB000CF910895FC01DB0112968D919C911397B1
:101CC000938382838CE891E09183808314968C9136
:101CD0001497848315968C911597858316964D914C
:101CE0005D916D917C9119974683578360877187C9
:101CF0001A964D915D916D917C911D974287538706
:101D0000648775871E964D915D916D917C91519779
:101D100046875787608B718B52968C915297828B36
:101D200053964D915D916D917C915697438B548B59
:101D3000658B768B57964D915D916D917C915A97FD
:101D4000478B508F618F728F5B968D919C91948F92
:101D5000838F0895DC015996ED91FC91309721F025
:101D600081E09581911101C080E00895FC01818D91
:101D7000928D009719F061E00C94FD0B0895DC0141
:101D80005996ED91FC913097B9F083899489A58992
:101D9000B6894285538564857585841B950BA60B92
:101DA000B70B811520E89207A105B10538F08FEF38
:101DB0009FE7A0E0B0E0089590E080E00895DC01A6
:101DC00059968D919C91009739F0DC01ED91FC9131
:101DD0000480F581E02D099490E080E00895CF9390
:101DE000DF93EC01E98DFA8D309749F481E090E0C2
:101DF0009B838A8390E080E0DF91CF9108951382E6
:101E00001282898D9A8D0E94AE0CE98DFA8D228105
:101E10003381232B59F7F0CFCF93DF931F92CDB7A8
:101E2000DEB76983DC01ED91FC910280F381E02D46
:101E300041E050E0BE016F5F7F4F09950F90DF9149
:101E4000CF9108952F923F924F925F926F927F921F
:101E50008F929F92AF92BF92CF92DF92EF92FF92BA
:101E60000F931F93CF93DF9300D01F92CDB7DEB7B0
:101E7000FC018581811118C08FEF9FEF0F900F90AB
:101E80000F90DF91CF911F910F91FF90EF90DF9016
:101E9000CF90BF90AF909F908F907F906F905F900A
:101EA0004F903F902F900895848180FFE5CF438924
:101EB00054896589768982859385A485B585312C79
:101EC000212C481759076A077B0719F0222423940D
:101ED000312C6F012101CE0101963C01DF011696E4
:101EE000BB83AA834114510409F4C5C0F60142859D
:101EF0005385648575854A01F1E09F22D6015B9682
:101F00008D919C915C978A019B01E9E0369527951C
:101F100017950795EA95D1F71596EC91E230E9F51A
:101F2000FC01628D738D848D958D600F711F821FF2
:101F3000931FA12C22E0B22EA818B9084A145B0402
:101F400008F45201F601248126FD04C0A114F2E038
:101F5000BF0671F40091000110910101209102016E
:101F600030910301061717072807390709F05EC0EB
:101F700040E00E941407882309F47ECFC401835AED
:101F80009C4FD3019C012A0D3B1DFC012E173F07DE
:101F900009F46CC041914D93F9CFDC011496BC90CB
:101FA000BA94B0228114910479F4B1100DC0452B7C
:101FB000462B472B69F5F6018789908DA18DB28D4F
:101FC00086839783A087B187D6015B96ED91FC91BC
:101FD0005C9716966D917D918D919C9119976250A9
:101FE000710981099109258504C0660F771F881F33
:101FF000991F2A95D2F70685178520893189600FA8
:10200000711F821F931F6B0D711D811D911D91CF3B
:10201000D60116964D915D916D917C9119972A810B
:102020003B810E9429098111CFCF26CF7301850101
:102030009401AB01BC0180915D0590915E050E9409
:10204000B505882309F418CF6A0C7B1CF60182853C
:102050009385A485B5858A0D9B1DA11DB11D828721
:102060009387A487B5874A185B083CCF281B390B98
:10207000620E731EEBCF2A94232809F0FDCE8981CE
:1020800090E0FCCEFC01818D928D009711F00C94B4
:10209000220F8FEF9FEF08950F931F93CF93DF933E
:1020A000EC01898D9A8D10E000E0009799F00E9474
:1020B000220F8C010F3F100769F0898D9A8DFC016A
:1020C00042855385648575854150510961097109BF
:1020D0000E94690AC801DF91CF911F910F91089565
:1020E000CF93DF931F92CDB7DEB75F9A19829981A4
:1020F0009817F0F45C980000000000000000000059
:1021000000000000000000000000000000005C9AD9
:1021100000000000000000000000000000000000BF
:10212000000000000000000099819F5F9983DFCFCD
:102130000F90DF91CF910895CF93DF9300D0CDB76B
:10214000DEB71A82882309F427C05C9800000000DB
:10215000000000000000000000000000000000007F
:10216000000000005F980000000000000000000078
:1021700000000000000000000000000000005C9A69
:10218000000000000000000000000000000000004F
:1021900000000000000000005798198289818830F3
:1021A00008F028C08A8190E0959587958A835C988D
:1021B000000000000000000000000000000000001F
:1021C00000000000000000004F9B03C08A8180686F
:1021D0008A835C9A000000000000000000000000FC
:1021E00000000000000000000000000089818F5FF7
:1021F0008983D4CF579A5C98662301F15F9A0000D7
:1022000000000000000000000000000000000000CE
:102210000000000000005C9A0000000000000000C8
:1022200000000000000000000000000000000000AE
:102230008A810F900F90DF91CF9108955F98DFCF43
:10224000CF93DF931F92CDB7DEB7882309F427C061
:102250005C9800000000000000000000000000008A
:10226000000000000000000000005F980000000077
:10227000000000000000000000000000000000005E
:10228000000000005C9A0000000000000000000058
:1022900000000000000000000000000000001982A3
:1022A00089815C98883008F027C0862F90E060FF15
:1022B00021C05F9A00000000000000000000000044
:1022C000000000000000000000000000BC01759547
:1022D00067955C9A0000000000000000000000000C
:1022E00000000000000000000000000089818F5FF6
:1022F0008983D6CF5F98DECF4423F1F05F9A000048
:1023000000000000000000000000000000000000CD
:102310000000000000005C9A0000000000000000C7
:1023200000000000000000000000000000000000AD
:102330000F90DF91CF9108955F98E1CF1F93CF93D6
:10234000DF93C82F162FD72F40E062EB81E00E9469
:10235000201140E0612F80E00E942011DF736C2F7C
:102360006295660F660F607C6D2B40E080E00E94F6
:1023700020116C2F66956695606C41E080E00E94AC
:10238000201184E0DF91CF911F910C9470104F9237
:102390005F926F927F928F929F92AF92BF92CF92F5
:1023A000DF92EF92FF920F931F93CF93DF93CDB7FE
:1023B000DEB728970FB6F894DEBF0FBECDBF6A0117
:1023C00059012B013C0182E076946794579447941D
:1023D0008A95D1F761E070E080E00E949E11F12CB7
:1023E000E12C94E0892E912CEA14FB040CF052C0ED
:1023F000C70183709927892B89F5B20180EC0E946F
:102400009E11B20180EE0E949E1141E06AEA81E0D5
:102410000E94201160E081E00E949C10898360E0AE
:1024200080E00E949C108A8360E080E00E949C1003
:102430008B8361E080E00E949C108C8384E00E948A
:10244000701089819A81AB81BC818D839E83AF831B
:10245000B8878FEF481A580A680A780AC701B4018A
:102460000E94C730E5E0F0E0EC0FFD1FE80FF91F18
:102470008081F601EE0DFF1D0115110531F09081EF
:10248000981721F0F80180818F5F8083FFEFEF1AAA
:10249000FF0AAACF61E070E080E028960FB6F894BA
:1024A000DEBF0FBECDBFDF91CF911F910F91FF9087
:1024B000EF90DF90CF90BF90AF909F908F907F90E4
:1024C0006F905F904F900C949E1140E060ED81E022
:1024D0000E94201140E06AEA80E00E94201140E062
:1024E00065E580E00E94201140E06AEA80E00E94F9
:1024F000201141E065E580E00E94201184E00C9409
:1025000070100E9465128AB18F768AB91092900578
:102510005D9A55980895CF93C82F41E06EEA81E007
:102520000E94201184E00E94701060E081E00E940F
:102530009C108093050760E080E00E949C108093CF
:10254000060760E080E00E949C108093070761E02E
:1025500080E00E949C108093080784E00E94701025
:102560000E9465128091050792EC980F923018F046
:1025700080E0CF9108958F3309F0ECC0CC2309F4AB
:10258000E7C061E070E080E00E949E1161E070E0D1
:1025900088E90E949E1161E070E08AE90E949E1124
:1025A00068EC70E080E090E00E94E20161E070E0A1
:1025B0008AE80E949E1164E170E080E090E00E9451
:1025C000E20161E070E088E80E949E1161E070E045
:1025D00080E00E949E11809105078E3309F059C05A
:1025E00040E060EF81E00E94201140E060E080E088
:1025F0000E94201140E060E080E00E94201140E055
:1026000060E080E00E94201141E060E080E00E94F4
:10261000201184E00E94701040E061EB81E00E9494
:10262000201140E06DE380E00E94201140E060E670
:1026300080E00E94201140E06CE080E00E942011C8
:1026400040E060E080E00E94201141E06FE080E027
:102650000E94201188E20E94701040E060EF81E04B
:102660000E94201140E063E480E00E94201140E0DD
:1026700060E480E00E94201140E069E580E00E9473
:10268000201141E06DE580E00E94201184E00E946D
:10269000701088E20E94701040E061EB81E00E94BF
:1026A000201140E06CE080E00E94201140E060E0FA
:1026B00080E00E94201141E067E180E00E9420114B
:1026C00088E20E94701041E069EA81E00E942011D6
:1026D00084E00E94701060E081E00E949C1061E044
:1026E00080E00E949C10C82F84E00E947010C032CD
:1026F00009F067C040E061EB81E00E94201140E0FA
:102700006DE380E00E94201140E060E280E00E94E2
:10271000201140E06CE080E00E94201140E060E089
:1027200080E00E94201141E06FE080E00E942011D3
:1027300088E20E94701040E061EB81E00E9420116D
:1027400041E06DE080E00E94201182E00E94701064
:1027500081E00FCF40E060EF81E00E94201140E077
:1027600064E580E00E94201140E061E580E00E9485
:10277000201140E06AE480E00E94201141E06CE416
:1027800080E00E94201184E00E947010C111F9CEF7
:1027900061E070E080E00E949E1161E070E088E9F5
:1027A0000E949E1161E070E082E90E949E1168EC37
:1027B00070E080E090E00E94E20161E070E08EE96C
:1027C000EDCEC03609F0D4CEB6CFCF93DF93EC0177
:1027D0008AE00E94701041E068EA81E00E942011C6
:1027E00084E00E94701060E081E00E949C10888369
:1027F00060E080E00E949C10898360E080E00E949D
:102800009C108A8361E080E00E949C108B8384E0AE
:10281000DF91CF910C9470108AB180698AB95F9A68
:102820005C9A0895CF93C82F5D9A559A64E170E041
:1028300080E090E00E94E2015D980E940C1480E527
:102840000E9470108C2F0E948B12809390058091B3
:102850009005811105C08C2F0E948B1280939005EA
:10286000CF9108956F927F928F929F92AF92BF9275
:10287000CF92DF92EF92FF920F931F93CF93DF934C
:102880004B015C017A01690180910907811108C03F
:102890000E94811281E00E94121481E08093090756
:1028A00080919005882309F45DC082E0B694A794D6
:1028B000979487948A95D1F7E401B40180E00E944F
:1028C0009E11B40184E80E949E11B40186E80E9422
:1028D0009E1187015E018FEFA81AB80AC8018E19F0
:1028E0009F098C159D058CF5F801608071808280B0
:1028F00093800C5F1F4F40E062EB81E00E9420114B
:1029000040E0662D80E00E94201140E0672D80E0CD
:102910000E94201140E0682D80E00E94201141E0DB
:10292000692D80E00E94201184E00E947010BE0199
:1029300086E80E949E11BE0186EC0E949E11BE0197
:1029400086E80E949E11E501C5CF2197BE0182E86D
:102950000E949E11BE0180E80E949E11BE0180E08F
:102960000E949E119091900581E0911101C080E03C
:10297000DF91CF911F910F91FF90EF90DF90CF905B
:10298000BF90AF909F908F907F906F9008958091AF
:102990009005811104C00E9412141092090785E06D
:1029A00097E00E94E5139091900581E0911101C09C
:1029B00080E00895CF93DF93FB0122813381DC0116
:1029C00013963C932E9312974481558166817781AB
:1029D00014964D935D936D937C9317974085518525
:1029E0006285738518964D935D936D937C931B97C9
:1029F0001C96EF012C969C01275E3F4F49914D9309
:102A0000A217B307D9F7218D328DFC01328F218FA8
:102A1000DF91CF91089521E001C0220F6A95EAF776
:102A2000DC011C962C931C971A965C934E93199775
:102A3000ED91FC910484F585E02D60E00994682F08
:102A400082E00C943A0181E196E00E94A002892B79
:102A5000D1F381E196E00E947E020895CF93C82FC2
:102A60000E942315803251F484E10E9428038C2FA8
:102A70000E94280380E1CF910C94280380918F0558
:102A80008F5F80938F0585E1F6CF0E9423158032FA
:102A900031F484E10E94280380E10C9428038091A2
:102AA0008F058F5F80938F0585E1F7CFEF92FF92BF
:102AB0000F931F93CF93DF937C01D0E0C0E0CE153E
:102AC000DF0574F48E01C038D10514F010E000E089
:102AD0000E942315F801EF56FA4F80832196EFCF1D
:102AE000DF91CF911F910F91FF90EF9008950F9379
:102AF0001F93CF93DF938C010E94561590E080E0E6
:102B00000E941F15D0E0C0E0C017D10744F46DE269
:102B100070E080E090E00E94E2012196F5CF81E034
:102B200090E00E941F1580E1DF91CF911F910F91DE
:102B30000895DC01ED91FC910684F785E02D41E0DC
:102B4000099581E090E00895DC01ED91FC91068407
:102B5000F785E02D40E009940F931F93CF93DF9307
:102B6000CDB7DEB728970FB6F894DEBF0FBECDBF46
:102B70000091190110911A0120911B0130911C0143
:102B800009831A832B833C8300911D0110911E0140
:102B900020911F01309120010D831E832F833887E0
:102BA000FC012781421710F04FEF420F50E0FC016B
:102BB00030854C0F5D1FFA01303189F4243079F4EF
:102BC0002581620F606828960FB6F894DEBF0FBEAD
:102BD000CDBFDF91CF911F910F910C94A41521814E
:102BE000F0CF0F931F93CF93DF93EC01423018F097
:102BF0008C8188608C834F836887222329F0413041
:102C000019F48C8184608C8364E670E080E090E04D
:102C10000E94E2016C8164FD55C0E881F98106845F
:102C2000F785E02D42E063E0CE01099503E719E660
:102C3000C8010197F1F7E881F9810684F785E02D55
:102C400042E063E0CE010995C8010197F1F7E88100
:102C5000F9810684F785E02D42E063E0CE01099515
:102C60008FE793E00197F1F7E881F9810684F78512
:102C7000E02D42E062E0CE0109956C816062CE01F8
:102C80000E94A41584E08D836CE0CE010E94A415FF
:102C900061E0CE010E94A4158BED9EE20197F1F751
:102CA00082E08E8366E0CE010E94A415E881F9815E
:102CB0000484F585E02D6FEFCE01DF91CF911F9158
:102CC0000F9109946062CE010E94A41583E799E6F2
:102CD0000197F1F76C816062CE010E94A4158FE725
:102CE00093E00197F1F76C816062CE010E94A41518
:102CF000C4CF08950895089590E080E00895CF939B
:102D0000FC012381222309F46DC0262F6181609587
:102D100062236083C28181E080936802C093400295
:102D200010923403109233038EEA96E00E94D90485
:102D30009091330321E0913208F041C08091320339
:102D40008111FCCF82E08093320381E080933103D4
:102D50008FEF8093CC021092EE029093ED02A8E4E4
:102D6000B2E0EDECF2E080E0981338C01092EF0290
:102D70008091EF02CC0FC82BC093EF0280913003FB
:102D8000813031F4109230038091EF028093BB00C8
:102D900085EE8093BC00809132038230E1F3809114
:102DA000CC0220E08F3F59F08091CC0222E08032AB
:102DB00031F08091CC0224E0803309F423E01092BA
:102DC0003403109233031092680230E081E090E007
:102DD000232B11F090E080E0CF9108952D91219365
:102DE0008F5FC2CF30E020E0F1CFEF92FF920F93E0
:102DF0001F93CF938C01FC0184E0C0E0262F30E0CC
:102E000060FF02C09589C92BB901759567958150FE
:102E100031968111F3CF413011F4F8014489F80162
:102E20006585C62BC42B7801FEE0EF0EF11CF8017E
:102E300062896C2BC7010E947F16F8016289609538
:102E40006C23C701CF911F910F91FF90EF900C94CD
:102E50007F160F931F93CF93DF93062F0F7042308F
:102E600041F440E0602FDF91CF911F910F910C94BE
:102E7000F516142FEC0170E084E0759567958A953E
:102E8000E1F7CE010E94F516412F602FCE01EBCF66
:102E9000FC0184858823A1F0218532852115310527
:102EA00021F4611107C0158606C021303105D9F71C
:102EB0006111F9CF85876585CF010E960C947F1639
:102EC0000895FF920F931F93CF93DF93EC01162F7A
:102ED000042FF22E8B85888B909132039111FCCFB9
:102EE00091E090933203909331032FEF2093CC0223
:102EF0001092EE021092ED029093EF029091EF0289
:102F0000880F892B8093EF0280913003813031F458
:102F1000109230038091EF028093BB0085EE809386
:102F2000BC00809132038130E1F38091EE0291E0A8
:102F3000811102C09091EE02EDECF2E0A9E6B2E060
:102F400080E0891323C0109236038093350391E00B
:102F5000811101C090E0998B8EEA96E00E94920464
:102F60008E878989882339F01F861C8260E0CE0114
:102F70000E960E947F162F2D402F612FCE01DF91DC
:102F8000CF911F910F91FF900C94F11521912D93EA
:102F90008F5FD7CF8F929F92AF92BF92CF92DF92E7
:102FA000EF92FF920F931F93CF93DF9300D000D047
:102FB000CDB7DEB77C0180E2689FF0011124E35AAF
:102FC000FC4F93859171A9F0842F827491F080E079
:102FD0000F900F900F900F90DF91CF911F910F9155
:102FE000FF90EF90DF90CF90BF90AF909F908F9029
:102FF0000895142FD70152966C9352974091000177
:103000005091010160910201709103011E964D9350
:103010005D936D937C93519784889588B12CA12CF6
:1030200054019924882457968D929D92AD92BC921A
:103030005A97828D938DB0E0A0E0AC01BD01482984
:1030400059296A297B29D70157964D935D936D9332
:103050007C935A978385887109F08CC0848D958DF7
:10306000A68DB78DF701838B948BA58BB68B81E0F2
:103070008583812F8F70D70114968C931497F70155
:1030800016821782108611861A961D921D921D9225
:103090001C921D9716FF84C015968C911597813050
:1030A00009F095CF11FF93CF53968D919D910D907F
:1030B000BC91A02D892B8A2B8B2B09F471C040E089
:1030C00050E0BA01C7010E94690A882309F47FCF42
:1030D000F701C38CD48C8788908CA18CB28C82E051
:1030E00090E0A0E0B0E0F60180839183A283B383F7
:1030F0009E012F5F3F4FB501A401C6010E9429091F
:10310000882309F464CF00E010E09801B501A40120
:10311000C6010E948708882309F459CF89809A80C4
:10312000AB80BC80D60157968C918031A1F188EF9D
:103130009FEFAFEFBFE088169906AA06BB06C0F264
:10314000F701178A108E118E128E138A148A158A2F
:10315000168A84818068848361E0C7010E94FD0B28
:10316000882309F434CF40E050E0BA01C7010E943F
:10317000690A2ECF803109F02ACF97012D5E3F4F8B
:103180005B968D919C910E94AA09882309F41FCF18
:1031900084E0F7016DCF88EF9FEFA0E0B0E0CBCFE8
:1031A00081E016CFAF92BF92CF92DF92EF92FF9263
:1031B0000F931F93CF93DF9390E080E00E941F1541
:1031C000C0900601D0900701C0910401D091050183
:1031D0008091650790916607019709F0C6C0860146
:1031E00016950795809190058823F1F065E58AE0B2
:1031F00097E00E94EF03602F8AE097E00E94EF03C0
:103200006D2D66958AE097E00E94EF0360E28AE008
:1032100097E00E94EF030E94DC0380918F058823D2
:1032200071F186E080938F05809190058823F1F0FD
:1032300065E58AE097E00E94EF03602F8AE097E05F
:103240000E94EF036D2D66958AE097E00E94EF03E0
:1032500060E28AE097E00E94EF030E94DC03809125
:103260008F058823D9F187E080938F0580918F05A2
:10327000882309F46CC086E080938F0568C064E6FB
:103280008AE097E00E94EF0360E08AE097E00E9406
:10329000EF0360E88AE097E00E94EF0366E48AE0CB
:1032A00097E00E94EF037E015E0180E8A80EB11C4A
:1032B000F70161917F018AE097E00E94EF03EA1431
:1032C000FB04B1F760E28AE097E00E94EF030E94FE
:1032D000DC0380918F058111A4CFA6CF64E78AE03B
:1032E00097E00E94EF0360E08AE097E00E94EF031E
:1032F00060E88AE097E00E94EF0366E48AE097E0E6
:103300000E94EF0360E28AE097E00E94EF030E94D0
:10331000BA03182F7E01F0E8EF0EF11C09910E940C
:10332000BA03081729F080918F058F5F80938F056E
:10333000EC16FD0699F70E94BA03143109F093CFF9
:1033400090918F0591118FCF803109F08CCF81E062
:1033500090E0DF91CF911F910F91FF90EF90DF9060
:10336000CF90BF90AF900C941F15F12CE12C20E86A
:1033700030E0AE01C701B6010E9432148091900581
:10338000882349F00FE815E020E830E0AE01C701DE
:10339000B6010E94C7118091900568CFEF92FF920D
:1033A0000F931F93CF93DF937B01482F60E089E257
:1033B00097E00E94AC15E70109900020E9F72197FA
:1033C000CE19C13108F0C0E1DE2D8701802F8D1BA1
:1033D0008C1740F4F80161918F0189E297E00E9417
:1033E0009915F4CFC03139F060E289E297E00E948C
:1033F0009915CF5FF7CFDF91CF911F910F91FF907C
:10340000EF900895FB0101900020E9F73197AF019B
:10341000461B570BDC01ED91FC910280F381E02DFE
:1034200009946115710511F00C94021A90E080E086
:103430000895CF93DF93EC0141E060E089E297E0EB
:103440000E94AC1564EC71E089E297E00E94111AC9
:10345000EC81F0E0EE0FFF1FEF5DFE4F60817181A8
:1034600089E297E00E94111A8C8190E09E838D83FF
:1034700090E080E0DF91CF9108951F93CF93DF9389
:10348000EC018C818F5F853080F58C8341E060E0BA
:1034900089E297E00E94AC1510E160E289E297E0D2
:1034A0000E9499151150C9F741E060E089E297E068
:1034B0000E94AC1541E060E089E297E00E94AC1503
:1034C00064EC71E089E297E00E94111AEC81F0E06F
:1034D000EE0FFF1FEF5DFE4F6081718189E297E083
:1034E000DF91CF911F910C94111A1C82CFCFCF93F3
:1034F000DF93EC0140E150E082E497E00E9432303B
:103500001092520762E477E0CE01DF91CF910C94E4
:10351000CE1961E089E297E00E94A4158BED9EE24E
:103520000197F1F76EEA70E090E080E00E94771A70
:10353000809165079091660762EA70E00097A9F0B4
:1035400063E970E08130910581F065E870E08230D8
:10355000910559F068E770E08330910531F060EA39
:1035600070E0049711F468E670E081E090E00C945C
:10357000771A0C94891ACF93C82F40E150E082E467
:1035800097E00E9432301092520741E06C2F89E29E
:1035900097E00E94AC1562E477E089E297E0CF9172
:1035A0000C94111A8091650790916607892BE9F0B8
:1035B00080919005811119C080915103811115C02E
:1035C00080918F05882351F010928F05109252033D
:1035D0006FEB70E08FE090E00E94BB1A61E082E048
:1035E0000E94680181E0809351030895E4E0F1E0D6
:1035F00081E995E09183808313821282148281E0B5
:103600008583168210861782118640E850E06FEF9E
:1036100070E081E995E00C9407310F931F93CF93ED
:10362000DF938C01EFE5F5E080E3DF011D928A95E1
:10363000E9F7C8010E944210D0E0C0E097FD11C038
:103640008A30910571F08D30910529F0FE01E15A23
:10365000FA4F80832196C8010E944210C033D105E1
:1036600069F7CE01DF91CF911F910F9108950F93CC
:103670001F93CF93DF938091660580930E01809115
:10368000670580930F011092100140E150E070E057
:1036900060E08EE091E00E94122F60930A016111B8
:1036A000ACC08091620580930E0180916305809388
:1036B0000F018091640580931001809165058093CE
:1036C00011011092120140E150E070E060E08EE0E4
:1036D00091E00E94122F70930C0160930B01809176
:1036E000600580930E018091610580930F01109217
:1036F000100140E150E070E060E08EE091E00E9457
:10370000122F60930D018091080120910B013091DF
:103710000C0181110AC080910901882331F0309396
:1037200007012093060110920901809106019091F2
:10373000070180589F4F82179307F8F49FEFE0919D
:1037400008011E1674F42091040130910501E20F66
:10375000F32FF11D9083809108018F5F8093080102
:10376000EECF0E94D2181092080180910B01909127
:103770000C019093070180930601C0910D01CC0FBD
:10378000C75F0FE515E0D9E0DC1708F059C080915C
:103790000801803871F40E94D218109208018091BB
:1037A00006019091070180589F4F909307018093E5
:1037B0000601F801818580930E01828580930F01B7
:1037C0001092100140E150E070E060E08EE091E086
:1037D0000E94122FE091080180910401909105014F
:1037E000E80FF92FF11D6083809108018F5F8093AE
:1037F0000801DE5F0E5F1F4FC7CF613009F59FEFF5
:10380000E09108011E1674F4209104013091050125
:10381000E20FF32FF11D9083809108018F5F809359
:103820000801EECF0E94D218109208018091060183
:103830009091070180589F4F909307018093060154
:10384000DF91CF911F910F910895CF93DF9300D017
:103850001F92CDB7DEB71B8289836A8340E150E0B7
:1038600070E060E0CE0101960E94122F862F0F902B
:103870000F900F90DF91CF9108950F931F93CF93E7
:10388000DF93CDB7DEB761970FB6F894DEBF0FBEFA
:10389000CDBF8C01DC0115968C91159714968C93F5
:1038A000149712966D917C9190E080E00E94771AB7
:1038B000D8011496EC91F0E0EE0FFF1FEF5DFE4F84
:1038C00081818F9380818F9386EC91E09F938F937A
:1038D0008E010F5F1F4F1F930F930E942831B80175
:1038E00081E090E00E94CE190F900F900F900F9002
:1038F0000F900F9061960FB6F894DEBF0FBECDBF4C
:10390000DF91CF911F910F9108950E94F5303F9262
:103910004F925F926F927F928F929F92AF92BF92DF
:10392000CF92DF92EF92FF920F931F93CF93DF938B
:10393000CDB7DEB72B970FB6F894DEBF0FBECDBF65
:103940007C01FE013196CE010C966F0130E231937D
:10395000E817F907E1F7DA0130E087E09D91B92E29
:10396000992309F43CC09E32F1F48A30C9F480E016
:103970002B960FB6F894DEBF0FBECDBFDF91CF916F
:103980001F910F91FF90EF90DF90CF90BF90AF907D
:103990009F908F907F906F905F904F903F90089591
:1039A00038E08AE0DBCFE1ECF0E04491442321F001
:1039B00031969413FACFDBCF8317C8F24FED490F3E
:1039C0004E35A8F64FE9490F4A3118F440EEB42EAF
:1039D000B90EF601E30FF11DB0823F5FBFCF8981C1
:1039E000803229F2322E8B01DB015B968D919C9106
:1039F0005C97F701948F838F16961D921D921D92EE
:103A00001C921997FB011286138614861586F801FD
:103A100082859385A485B58543895489658976898E
:103A200084179507A607B70708F04DC025E0B6959F
:103A3000A795979587952A95D1F7F82FFF70AF2E08
:103A4000D80115968C91823008F491CFC8010E945C
:103A5000220F97FD8CCFF80182859385A485B585CB
:103A60004F96A11DB11D82879387A487B587F0E289
:103A7000AF9EB0011124635A7C4F6115710509F4A2
:103A800076CFDB018C91882341F0853E09F062C03E
:103A9000BB2029F0BB24B394BACFB1100EC0F701FC
:103AA000A28A8091000190910101A0910201B09140
:103AB000030186879787A08BB18BDB018C918111E5
:103AC000E9CFBB24B394832D8271823109F04FCFAB
:103AD000BB2009F44DC0F7016685778580899189FF
:103AE00041E00E941407882309F441CFD701529680
:103AF0008C91B0E28B9FC0011124835A9C4F009798
:103B000009F435CFFC013A9626E1DF011D922A9592
:103B1000E9F72BE0F601DC0101900D922A95E1F71F
:103B200021E238E2FC01318B208B40E058E05787DE
:103B30004687338B228B318F208F578B468B81E0CA
:103B40000E94E906882309F412CF432DD70152962B
:103B50006C910AC04BE050E0C6010E94FA30892BFC
:103B600009F055CF432D6A2DC7010E94CA1700CF17
:103B7000F8018581823009F4FACEC8010E94FD0A5D
:103B8000882309F4F4CED8015B96ED91FC915C9703
:103B900016968D909D90AD90BC901997B2E08B1ABF
:103BA0009108A108B108858504C0880C991CAA1C3D
:103BB000BB1C8A95D2F786859785A089B189880E26
:103BC000991EAA1EBB1E848124013501480E511C7A
:103BD000611C711C84149504A604B70409F1E1E08A
:103BE0004E1A51086108710881E00E94E906882395
:103BF00009F4BDCEEDE5F3E011928DE595E08E1769
:103C00009F07D1F74092000150920101609202019A
:103C10007092030180914302816080934302DACF66
:103C2000D8015B96ED91FC91258580E092E0A0E0C3
:103C3000B0E004C0880F991FAA1FBB1F2A95D2F7B6
:103C4000F8014389548965897689840F951FA61FD9
:103C5000B71F838B948BA58BB68BD70152961C9282
:103C60008DE593E04FCFCF93DF93EC01898D9A8D53
:103C7000009741F00E94A10C898D9A8D0E94892E97
:103C80001A8E198EDF91CF910895EF92FF920F93C4
:103C90001F93CF93DF93EC017B018A011B821A8271
:103CA00088EE93E0A0E0B0E08C839D83AE83BF8379
:103CB00086E591E0998388838DE190E00E94ED2D67
:103CC0009A8F898F009779F02DE1F701DC0101903F
:103CD0000D922A95E1F74CE050E0B801CE010C9628
:103CE0000E941931188EDF91CF911F910F91FF9093
:103CF000EF9008952F923F924F925F926F927F9232
:103D00008F929F92AF92BF92CF92DF92EF92FF92EB
:103D10000F931F93CF93DF93CDB7DEB7C756D1096B
:103D20000FB6F894DEBF0FBECDBF6C015B01A69647
:103D30004FAFA69719A218A28CE891E09F8F8E8FA3
:103D40001BA21C821B829A8389831E824E018EE1F4
:103D5000880E911CC4010E94150A75018E010F5F27
:103D60001F4F240118016FE270E0C7010E940E315D
:103D7000009709F45DC0F70120812F3271F4FFEF45
:103D8000EF1AFF0A902F812F8201492E582E942D71
:103D9000852D2801092F182FE6CF8E198D3008F0B8
:103DA0008CE0682E712CA301B701CE01885A9F4F79
:103DB0000E941931E8E5F0E0EC0FFD1FE60DF71D5C
:103DC0001082C8010E94A10CF8018581882301F1AD
:103DD0001EAE1DAE8CE891E09CAF8BAF21961FAE5E
:103DE0002197A896EEADFFADA897AE0EBF1EF501C8
:103DF000808181112AC0BE01655C7F4FC1010E9494
:103E00005A0E4AEC51E0B101C6010E94451E3BC06A
:103E100021E0AE01485A5F4FB201C8010E94871CE1
:103E20008823B1F2E60CF71CC2010E94A10CAFCFAF
:103E3000C7018A199B09A8969FAF8EAFA897B201B8
:103E4000CE01CB960E945A0ECCCF19A218A28CE8B4
:103E500091E09F8F8E8F1BA221968FAD21978111AC
:103E60002DC0F6011382128288EE93E0A0E0B0E04C
:103E700084839583A683B78386E591E091838083CD
:103E8000128E118E1486C601C959DF4F0FB6F894F1
:103E9000DEBF0FBECDBFDF91CF911F910F91FF907D
:103EA000EF90DF90CF90BF90AF909F908F907F90DA
:103EB0006F905F904F903F902F900895A6962FADF2
:103EC000A697A501BE01655C7F4FC4010E94871CB7
:103ED000882339F2CE01CB960E94A10CA6968FAD15
:103EE000A6978670863039F449A95AA96BA97CA98E
:103EF000C4010E94690AB401C1010E945A0EA501C1
:103F000082CF1F920F920FB60F9211242F933F93DF
:103F10008F939F93AF93BF938091550390915603D6
:103F2000A0915703B09158033091540320E4230F1C
:103F30002D3728F023EC230F0196A11DB11D2093EE
:103F400054038093550390935603A0935703B09363
:103F500058038091590390915A03A0915B03B0914B
:103F60005C030196A11DB11D8093590390935A03E0
:103F7000A0935B03B0935C03BF91AF919F918F912E
:103F80003F912F910F900FBE0F901F9018951F9289
:103F90000F920FB60F9211242F933F934F935F937D
:103FA0006F937F938F939F93AF93BF93EF93FF9301
:103FB00081E196E00E94C002FF91EF91BF91AF9125
:103FC0009F918F917F916F915F914F913F912F9131
:103FD0000F900FBE0F901F9018951F920F920FB663
:103FE0000F9211242F938F939F93EF93FF93E09160
:103FF0002106F09122068081E0912706F0912806A3
:1040000082FD1BC0908180912A068F5F8F73209163
:104010002B06821741F0E0912A06F0E0EF5EF94F9F
:10402000958F80932A06FF91EF919F918F912F9109
:104030000F900FBE0F901F9018958081F4CF1F92A4
:104040000F920FB60F9211240F931F932F933F934C
:104050004F935F936F937F938F939F93AF93BF9390
:10406000CF93DF93EF93FF93C0914F03D091500311
:10407000209749F0EE85FF859D858E8D81FF18C0C4
:1040800080818923C1F4FF91EF91DF91CF91BF919E
:10409000AF919F918F917F916F915F914F913F91E0
:1040A0002F911F910F910F900FBE0F901F90189599
:1040B0008081892341F7EB89FC8990818D898095E6
:1040C000892380838E899F890E94EB0308E010E09A
:1040D000888D998D0E94EB03812F90E095958795AF
:1040E000182FEE85FF8520813D85232309F0106878
:1040F000015071F78E8D81FD109580914E0390E0F7
:1041000001968F73992720914D03281799F0E0911C
:104110004E03F0E0E051FD4F108380934E038A8DF3
:104120009B8D0E94EB03EB89FC8980819D89892B03
:104130008083A9CF8E8D81608E8FF1CF1F920F92D9
:104140000FB60F9211242F933F934F935F936F936A
:104150007F938F939F93AF93BF93EF93FF93809140
:10416000B900887F803609F44AC0F0F5883209F436
:10417000A5C018F5803109F499C0B8F4882309F472
:10418000F0C0883009F492C0FF91EF91BF91AF91D8
:104190009F918F917F916F915F914F913F912F915F
:1041A0000F900FBE0F901F901895883109F486C0AC
:1041B000803251F78093CC0214C0803409F49BC044
:1041C00040F48033B9F38833F9F68093CC0285EC60
:1041D000AEC0803509F483C0883509F494C08834B2
:1041E00099F60E946004D0CF883909F48AC038F566
:1041F000883729F050F4883611F0803729F683E0AB
:10420000809332031092CB0255C0883809F479C0EC
:10421000803919F0803809F0B7CF8091CB02803215
:1042200008F06FC0E091CB0281E08E0F8093CB024B
:104230008091BB00F0E0E555FD4F80833BC0803BA3
:1042400039F0D0F4803A09F477C0883A09F09CCF6D
:1042500084E0809332031092AA021092A902F0E047
:10426000E0E009958091A90281110FC081E080935F
:10427000A9021092890209C0803C09F4A8CF883CA9
:1042800009F4A5CF883B09F07FCFE091AA0281E035
:104290008E0F8093AA02F0E0E757FD4F8081809354
:1042A000BB009091AA028091A90229C08091EF02DF
:1042B0008093BB0085EC8093BC0066CF9091EE02AA
:1042C0008091ED02981758F5E091EE0281E08E0F93
:1042D0008093EE02F0E0E353FD4F8081E9CFE0915F
:1042E000EE0281E08E0F8093EE028091BB00F0E041
:1042F000E353FD4F80839091EE028091ED02981779
:10430000C8F285E8D8CFE091EE0281E08E0F80936D
:10431000EE028091BB00F0E0E353FD4F808380917B
:10432000310381115ECF81E08093300384EA809372
:10433000BC001092320328CF8091CB02803230F43F
:10434000E091CB02F0E0E555FD4F10826091CB0289
:1043500070E08BEA92E0F0E0E0E009951092CB0289
:1043600036CF1092CC023DCFCF92DF92EF92FF92E8
:10437000CF93109214061092130698EEC92E93E074
:10438000D92EE12CF12CC0921506D0921606E0929F
:104390001706F092180688E691E090931206809333
:1043A000110685EC90E090931E0680931D0684EC28
:1043B00090E09093200680931F0680EC90E090930D
:1043C00022068093210681EC90E09093240680934E
:1043D000230682EC90E0909326068093250686ECD7
:1043E00090E0909328068093270610922A06109258
:1043F0002B0610922C0610922D061092B1061092E8
:10440000B006C092B206D092B306E092B406F09223
:10441000B5068AE791E09093AF068093AE0681E5FA
:104420008093BA06C1E0C093BB061092C1061092F9
:10443000C2061092C5061092C70682E090E0A0E086
:10444000B0E08093C8069093C906A093CA06B093C3
:10445000CB061092DF061092E9061092E8068CE86F
:1044600091E09093E7068093E6061092EB06109297
:10447000050710920607109207071092080710927E
:1044800009070E940C1410920D0710920C07C0929D
:104490000E07D0920F07E0921007F092110788E9FB
:1044A00091E090930B0780930A07109221071092D6
:1044B00020071092230710922207109225071092CE
:1044C00024071092270710922607809128078E7FD5
:1044D0008D7F8093280781FB662760F96C2788E031
:1044E0000E943A0161E088E00E946801EDE7F1E096
:1044F000E491E0931A07E2E6F1E0E491F0E0EE0FD8
:10450000FF1FE25BFE4F8591949190931C0780936F
:104510001B0760E086E00E9468018091280781FD0A
:1045200004C061E086E00E943A0186E080931607AD
:10453000EBE7F1E0E491E0931707E0E6F1E0E491C6
:10454000F0E0EE0FFF1FEE5BFE4F8591949190938C
:1045500019078093180710922C0710922B078AEAEC
:1045600091E090932A0780932907109239078FEFE3
:10457000809338071092370710923A0787E28093AA
:1045800034071092350710923607109233071092B5
:10459000320784E080933B0782E080933C0781E010
:1045A00080933D0780E180933E0780E280933F0740
:1045B00080E48093400780E88093410750E040E02A
:1045C00063E089E297E00E940B1589E0809353072E
:1045D00061E00E94680160E089E00E943A018EEB90
:1045E00091E090936107809360071092640780E9DF
:1045F00091E0909363078093620710926607109290
:10460000650710925507109256071092570710929F
:1046100058071092590710925A0710925B07109290
:104620005C0710925D0710925F0710925E07CF91B2
:10463000FF90EF90DF90CF900895CF93DF93CDB7A9
:10464000DEB7CC54D1090FB6F894DEBF0FBECDBF94
:104650008091F20080618EBB80E88093F2009EB36F
:104660009093F2008093610011E0109361008093B9
:10467000610010926100789484B5826084BD84B535
:10468000816084BD85B5826085BD85B5816085BD4D
:1046900080916E00816080936E0010928100809105
:1046A000810082608093810080918100816080938D
:1046B0008100809180008160809380008091B100B2
:1046C00084608093B1008091B00081608093B000DD
:1046D000809191008260809391008091910081602F
:1046E00080939100809190008160809390008091F0
:1046F0007A00846080937A0080917A00826080934F
:104700007A0080917A00816080937A0080917A00AB
:10471000806880937A001092C10082E080935407F1
:1047200062E00E94680110923603109235031092E5
:1047300034031092330380917E008F7C80937E003F
:1047400010923203109331031092300361E082E142
:104750000E943A0161E083E10E943A018091B90030
:104760008E7F8093B9008091B9008D7F8093B900CE
:1047700088E98093B80085E48093BC0020E042E0A3
:1047800060E189E297E00E94611761E089E297E0C9
:104790000E9448170E94891A8091EB06882321F015
:1047A00086EE96E00E94A10C1092C7061092C506F4
:1047B0001092C2061092C1068AE08093C0060E9441
:1047C00036028B0161E08091C0060E94680161E0C1
:1047D0008091C0060E943A01FFB6F8948091370399
:1047E000811127C0E4E6F1E08491EFE7F1E09491D4
:1047F000E82FF0E0EE0FFF1FE05EFE4FA591B491B1
:10480000EC91E92321F461E08AE00E943A0161E041
:104810008AE00E9468018CB580618CBD8CB5806493
:104820008CBD61E08DE00E94680161E08BE00E9438
:104830006801809137038F5F80933703FFBE83E564
:104840008093BA061092BB068091BA069091BB067F
:104850000E943F05FAE0FF2E8FEF0E941905FA949F
:10486000F110FACF8CEB96E00E94420520E030E098
:10487000A90160E08CEB96E00E945805F82E809329
:10488000C60621E0821709F42FC20E943602601B7F
:10489000710B613D774050F381E08093C1068CEB52
:1048A00096E00E940E05E0912106F091220682E03A
:1048B0008083E0911D06F0911E061082E0911F0694
:1048C000F091200682E2808310922906E09125066D
:1048D000F091260686E08083E0912306F09124067D
:1048E000808180618083E0912306F091240680819D
:1048F00088608083E0912306F0912406808180689F
:104900008083E0912306F091240680818F7D80834F
:10491000DE0111967D01FD01ED56F7402D96FFAFAA
:10492000EEAF2D979E01235C3F4F27963FAF2EAFF2
:104930002797C90108962B969FAF8EAF2B97809132
:104940009005882309F44EC28091530381114AC215
:1049500081E0809353036EE171E090E080E00E947B
:10496000BB1A81E090E00E94140280915203909162
:104970008F05992309F44EC2811117C081E08093FD
:1049800052036AE171E08FE090E00E94BB1A64EF8D
:1049900071E080E090E00E94E20180918F05833019
:1049A00008F483E090E00E94140280915103882370
:1049B00009F446C08EE091E00E942D0380916707C4
:1049C00090916807009709F031C22D96AEADBFAD4A
:1049D0002D97BA83A98389809A80092C000CAA0894
:1049E000BB08B7FE29C28DE20E9428032227332785
:1049F000A901281939094A095B0919A28E010F5D1D
:104A00001F4FCA01B9012AE030E040E050E00E94A7
:104A10005430605DD8016E938D012115310541053B
:104A2000510579F70115110529F0B80181E196E0EA
:104A30000E94021A6CEC71E081E196E00E94021A79
:104A400080916507909166078430910508F00CC24B
:104A5000019708F46CC280915103882309F407C2BE
:104A600081E090E00E94140264EF71E080E090E049
:104A70000E94E2018091650790916607019709F015
:104A8000E6C4109225071092240710922307109273
:104A90002207109221071092200782E490E0909361
:104AA00027078093260790911607963108F047C094
:104AB0002FE030E0309321072093200720E430E0FE
:104AC000309323072093220727E230E03093250715
:104AD000209324072091680084E0983048F031E06A
:104AE0009E3008F430E081E001C0880F3A95EAF783
:104AF000822B809368002DE630E0983050F02BE652
:104B000030E09E3030F02CE630E0963110F030E0AE
:104B100020E030931E0720931D07292F30E09830A6
:104B200008F056C481E001C0880F9A95EAF7809397
:104B30001F0780912607909127070E94EB03809121
:104B4000240790912507892B49F1E0914F03F091BB
:104B5000500327E0EA30F20709F1309739F0A389D2
:104B6000B4899C918589809589238C9380912807AD
:104B70008E7F8093280710924E0310924D038AE097
:104B800097E09093500380934F03E0911D07F091BD
:104B90001E07808190911F07892B808361E085E04B
:104BA0000E94680161E085E00E943A010E94F61AC5
:104BB00060E085E00E943A0161E070E080E090E012
:104BC0000E94E20161E085E00E943A0164E670E043
:104BD00080E090E00E94E20160E085E00E943A01FE
:104BE00061E070E080E090E00E94E20161E085E039
:104BF0000E943A0164E670E080E090E00E94E201E9
:104C000080E30E9456040E94DC0380918F05882374
:104C100009F4EBC384E080938F058091900588238D
:104C200009F4C3C480916507909166071DA21CA278
:104C300048EE53E060E070E04EA35FA368A779A759
:104C400026E531E03BA32AA31CAE1BAE1EA6813095
:104C5000910509F001C441E065E471E0C7010E94DB
:104C60007A1EB701CE0182960E94DA14CE01829696
:104C70000E94AA0E882309F494C46BED70E090E0C2
:104C800080E00E94BB1A81E090E00E94140264EF71
:104C900071E080E090E00E94E20110E000E043E07B
:104CA000D42ECE0182960E94BF0E892B09F448C4EF
:104CB000CE0182960E940D1B8B30910594F32091BA
:104CC0005F052A3371F7209165073091660722301E
:104CD000310509F4DAC30E94371B80918F058111D9
:104CE0002FC40F5F1F4FDDCF2AEA31E040E050E0D4
:104CF00068E08CEB96E00E94580582FF2AC0F09293
:104D0000C7068091C706C12CD12CE12C70E4F72E88
:104D1000823019F0C12CD12C760120E030E0A901BD
:104D200067E38CEB96E00E945805A701960169E2C3
:104D30008CEB96E00E9458058093C6068823D1F03C
:104D40000E943602601B710B613D774030F388E0B2
:104D5000A4CDE4E0FE2E0E9421058093C606FA94BD
:104D6000F110F9CF8A3A11F082E097CD82E080937A
:104D7000C706C7CF8091C7068230D1F420E030E06B
:104D8000A9016AE38CEB96E00E945805882311F094
:104D900086E083CD0E942105807C803C19F483E06D
:104DA0008093C7060E9421050E9421050E942105CB
:104DB0008CEB96E00E940E0581E58093BA0681E0B7
:104DC0008093BB060E945E07882329F086EE96E05A
:104DD0000E94150A68CD80E00E945E07882309F4CE
:104DE00062CDF4CF809190058111BFCD80915303A6
:104DF000882309F4BACD109253036CE171E090E07E
:104E000080E00E94BB1A80918F058111C6C682E0A6
:104E100090E0A9CD882309F4C8CD1092520368E12F
:104E200071E08FE090E00E94BB1ABFCDF701E81B54
:104E3000F90BFA83E983CFCDA501940119A28E0164
:104E40000F5D1F4FCA01B9012AE030E040E050E099
:104E50000E945430605DF80162938F012115310585
:104E60004105510579F7DECD049709F4A8C3809177
:104E7000900581112DC662E082E00E9468012091B8
:104E8000540730E0F901E45DFE4F8491F901EB58DD
:104E9000FE4F1491F901E65AFE4F0491011191C59C
:104EA00030E020E080915507882309F4AEC58130B9
:104EB00009F041C640915607509157076091580735
:104EC00070915907452B462B472B09F028C6232BF9
:104ED00009F0D6C540915A0750915B0760915C0775
:104EE00070915D07452B462B472B09F4C4C58230D2
:104EF00009F0C1C50E94360200915A0710915B0764
:104F000020915C0730915D07601B710B820B930B46
:104F1000603177428105910508F4ADC510925A07BA
:104F200010925B0710925C0710925D07A4C581E1A7
:104F300096E00E94A002892B09F499CF8BE1E4ED61
:104F4000F1E0D70101900D928A95E1F70E942315B7
:104F5000853509F49AC188F5813409F4E9C078F4FB
:104F6000803309F4BEC0813309F4C0C0803271F4CB
:104F700080918F058F5F80938F0585E1EEC1853429
:104F800009F46AC170F4823409F4E9C080918F0594
:104F90008F5F80938F050E942315803271F782E125
:104FA000DCC1803509F45DC1813581F710928F0530
:104FB0000E9481121092090796C0843609F479C1C3
:104FC00008F5803609F470C1813609F46FC1863561
:104FD000E9F684E090E00E945615809191058033B7
:104FE00009F0E2C18091920581110AC08091930578
:104FF000813009F4D5C108F4D1C1823009F4D2C19D
:105000008FEFA6C0853709F4D3C108F044C08437B8
:1050100009F0BCCF00914B0310914C030E94231563
:10502000D82E0E942315C82E0E942315B82E0E9448
:105030002315803209F09CCF8D2D90E0982F882782
:10504000C80ED92ED11C84E10E942803F6E4BF12B9
:1050500096C1B801660F771F072E000C880B990BBD
:1050600020919005222339F010E000E0960141E9FB
:1050700055E00E94C7118091900501E915E0C80133
:10508000815995408C159D05E8F5D8018D918D01CC
:105090000E942803F4CF8937B9F18A3709F076CF17
:1050A0000E942315803209F063CF85E097E00E94CB
:1050B000E513C0900507D0900607009107071091EF
:1050C000080784E10E9428038C2D0E9428038D2D5F
:1050D0000E942803802F0E942803812F0E9428030A
:1050E00011C010928F050E944515C1CE0E94231554
:1050F000803209F03DCF84E10E94280381ED90E0E9
:105100000E942D0380E129C10E942315803209F0FD
:105110002FCF84E10E942803B70181E196E00E942D
:10512000021A6CEC71E081E196E00E94021AEACF6B
:105130000E942315813879F020F4803841F080E016
:1051400007C0823851F08339D1F783E501C083E08D
:105150000E942E158CCE86E0FBCF84E0F9CF84E14F
:1051600090E00E94561580919105809338038091BC
:105170009205809339038091930580933A0380913F
:10518000940580933B038091950580933C03809127
:10519000960580933D038091970580933E0380910F
:1051A000980580933F0380919905809340038091F7
:1051B0009B0590E0982F882720919C05820F911DD8
:1051C000909342038093410380919D0590E0982F36
:1051D000882720919E05820F911D90934403809310
:1051E000430380919F0590E0982F88272091A00588
:1051F000820F911D90934603809345038091A105F2
:1052000090E0B0E0A0E0BA2FA92F982F8827209136
:10521000A205820F911DA11DB11DDC0199278827D0
:105220004091A30550E0542F4427052E000C660B37
:10523000770B840F951FA61FB71F2091A405820F1F
:10524000911DA11DB11D8093470390934803A09326
:105250004903B0934A0347CF85E090E00E9456157A
:1052600042CF80919005811102C00E94C7148091A5
:105270009005811138CF0E942315803209F078CE35
:1052800084E10E94280381E168C00E942315182F41
:105290000E94231590E0982F8827810F911D9093ED
:1052A0004C0380934B031FCF0E9423150E942315AC
:1052B0001ACF0E942315082F10E0102F00270E94FC
:1052C0002315080F111D0E942315863469F5C0901F
:1052D0004B03D0904C03C8010E94561590E080E02B
:1052E0000E941F150E9423158032B9F484E10E94A8
:1052F0002803B601660F771F072E000C880B990B49
:10530000980141E955E00E94321480E10E9428038F
:1053100081E090E00E941F15AACD80918F058F5FDC
:1053200080938F0585E1F2CF853409F0ACCF809171
:105330004503909146038017910790F480918F0563
:105340008F5F80938F0511E10E942315803209F051
:105350000FCE84E10E942803812F0E94280387CD6D
:10536000013211053CF080E290E00E947715005276
:105370001109F6CFC8010E94771510E1E5CFB5E419
:10538000BB1281CF10E000E0C016D10609F4BACEFE
:105390008FEF0E9428030F5F1F4FF6CF8EE1D8CE0C
:1053A00085E9D6CE8FE0D4CE803F09F029CEC7CE96
:1053B0000E942315803209F0DBCD84E10E9428038E
:1053C0008EE10E94280385E90E9428038AE086CEA8
:1053D0009E3040F42850310981E001C0880F2A95A1
:1053E000EAF7A5CB2E503109F7CF80E50E9456048D
:1053F0000E94DC0380918F0581110CCC85E70E940F
:1054000056040E94BA03C82E0E94BA03D82E0E94E6
:10541000BA03082F0E94BA03182F0E94BA0334E17E
:10542000C3120FC09EE1D9120CC0053951F41F30D0
:1054300041F4803131F481E08093900580919005B2
:10544000ECCB1092900584E080938F05F7CF0E94FB
:10545000F61A0E94C714E1CB8230910521F441E095
:1054600068E371E0FBCB039721F441E06BE271E06C
:10547000F5CB1C821B824D835E836F8378873A83D2
:1054800029831B8E1A8E1D86ECCB0115110509F0A0
:1054900022CC20916005203309F04FC02091610596
:1054A000243309F04AC020916205203309F045C039
:1054B00020916305203309F040C02091640520331A
:1054C000E1F5209165052033C1F520916605203373
:1054D000A1F520916705203381F5439771F560911F
:1054E0006905809168050E94251C80939105609153
:1054F0006B0580916A050E94251C8093920560913E
:105500006D0580916C050E94251C80939305609128
:105510006F0580916E050E94251C8093940524E000
:1055200030E041E955E060E070E0CB010E943214C8
:105530008111D3CBD0928F05D0CB83E080938F05A0
:10554000CE0182960E94331E809165079091660776
:10555000019781F510918F0581E50E9456040E9404
:10556000DC03111124C080918F05882319F088E095
:1055700080938F051092900562E085E00E9468019B
:1055800069ED70E090E080E00E94BB1A1092510338
:1055900080918F0581116BCC82E090E00E94140213
:1055A00066CC85E080938F05CFCF84E0FBCF10934E
:1055B0008F05E0CF0E94811210920907E1CF809100
:1055C0005103882309F453CC81E090E00E94140237
:1055D00064EF71E080E090E00E94E20110928F059C
:1055E0006DEF70E081E090E00E94771AA5E4B1E0F1
:1055F0002996BFAFAEAF299741E029966EAD7FAD3A
:105600002997CE0182960E947A1ECE0182960E9430
:10561000AA0E811125C080918F058F5F80938F0521
:1056200080918F056EEE70E0811102C06DED70E02B
:1056300081E090E00E94771A80918F05882309F419
:10564000BDC183E090E00E94140260EA7FE080E048
:1056500090E00E94E2010E94891A10928F0507CC07
:1056600088E02796EEADFFAD279711928A95E9F76E
:10567000D12CC12C30E3832ECE0182960E94BF0E26
:10568000892B09F47AC1CE0182960E940D1BEBADE5
:10569000FCAD44244A94542C3201309721F04284CA
:1056A000538464847584823091050CF4C4C02091C5
:1056B0005F052A3309F0BFC020915103222309F46A
:1056C00030C1C114D10409F09CC0A8E6B5E0FE01C8
:1056D000FD968D9181932B962EAD3FAD2B97E217C2
:1056E000F307B9F78092680533E43093690589E3DD
:1056F00080936A0594E390936B0580926C05809289
:105700006D05A3E3A0936E05B1E4B0936F050E940D
:10571000F61A8091660580930E018091670580934B
:105720000F011092100140E150E070E060E08EE067
:1057300091E00E94122F162F8091620580930E0136
:105740008091630580930F0180916405809310011F
:1057500080916505809311011092120140E150E0A3
:1057600070E060E08EE091E00E94122F1B018091BA
:10577000600580930E018091610580930F01109266
:10578000100140E150E070E060E08EE091E00E94A6
:10579000122F962E10920801A62EB12CB4E0AB0E5B
:1057A000B11CAA0CBB1C09E0802F90E0A816B9061A
:1057B0000CF445C0FC01E15AFA4F208120930E0100
:1057C000805A9A4FDC018C9180930F011092100146
:1057D00040E150E070E060E08EE091E00E94122F26
:1057E000E09108018091040190910501E80FF92FE3
:1057F000F11D6083809108018F5F809308010E5F27
:10580000D3CFE1E0CE16D10471F4FE01FD96A8E7F6
:10581000B5E081918D932B962EAD3FAD2B97E2177E
:10582000F307B9F774CF80916605803351F5809105
:105830006705813331F5BFEFCB1ADB0A1DCF190D98
:10584000210E320C80910401E82FF09105019E2F6A
:10585000981B991518F49191390EF9CF31941F9234
:105860003F92EFECF1E0FF93EF9388E895E09F9390
:105870008F930E9428310F900F900F900F900F90F0
:105880000F90CE0182960E94331E809151038111A8
:105890005AC047E16BE271E0C7010E947A1EB7016E
:1058A000CE0182960E94DA14CE0182960E94AA0E40
:1058B000882309F45DC090E080E00E941F156FE529
:1058C00075E0CE0182960E94021A6CEC71E0CE0166
:1058D00082960E94021A81E090E00E941F15CE017C
:1058E00082960E94331E41E029966EAD7FAD2997C6
:1058F000C7010E947A1EB701CE0182960E94DA1477
:10590000CE0182960E94AA0E882391F18BAD9CADA8
:10591000009771F1B301A2010E94690A81118BCF36
:1059200027C0C114D10409F0ACCF439709F0A9CF27
:1059300080916E05833309F0A4CF80916F05813487
:1059400009F09FCF78CFC114D10409F0A2CF43E56D
:105950006BE271E0C7010E947A1EB701CE01829608
:105960000E94DA14CE0182960E94AA0E81111BC0F9
:1059700080918F058F5F80938F05CE0182960E9464
:10598000331E80918F0581114BCE80915103882366
:1059900009F446CE10925103E8E3F1E02996FFAFF7
:1059A000EEAF299729CE6CEC71E0CE0182960E9471
:1059B000021ACE0182960E94331E6BCF82E090E0E5
:1059C00042CE81110E94FD00E02FF0E0EE0FFF1F9C
:1059D000EE5BFE4FA591B491EC91809155071E238B
:1059E00009F45ECA823071F480915607909157078E
:1059F000A0915807B0915907892B8A2B8B2B11F452
:105A00001092550721E030E04DCA232B09F08AC0DF
:105A10008091560790915707A0915807B091590768
:105A2000892B8A2B8B2B51F40E94360260935607E8
:105A30007093570780935807909359070E94360236
:105A40000091560710915707209158073091590738
:105A5000AB01BC01401B510B620B730B80915507CE
:105A600081112AC0423351056105710508F466C0F1
:105A700081E08093550780915507813009F05EC021
:105A80008091560790915707A0915807B0915907F8
:105A9000892B8A2B8B2BE1F41092550780915E079E
:105AA00090915F07009791F0DC01ED91FC910280ED
:105AB000F381E02D09950CC0813009F03FC0443FCF
:105AC000514061057105B8F282E0D3CF0E94D21A2D
:105AD00080E090E0892B11F40C949F240E94AC028A
